:020000040800F2
:10000000F0FF00102DC60408A15803087D4B01081D
:10001000C9C60408C9C60408C9C60408000000000F
:10002000000000000000000000000000AD580308C0
:10003000A958030800000000A5580308FD1901088D
:10004000C9C60408C9C60408C9C60408C9C6040844
:10005000C9C60408C9C60408355A0108615B01080D
:10006000255B0108E95A0108AD5A010871DC000856
:1000700061DC000851DC000841DC00082DDC0008D0
:1000800019DC000805DC0008C9C60408C9C6040854
:10009000C9C60408C9C60408C9C60408715A0108BB
:1000A000C9C60408C10E0108050A0108810F01082C
:1000B000010E0108410D0108750C0108C9C60408AC
:1000C000C9C60408C9C60408C9C60408C9C60408C4
:1000D000C9C60408111C0108C9C60408751B01081B
:1000E000F9590108C9C60408C59E0308C9C6040811
:1000F000D50A0108C9C60408A50B0108F1DB0008F0
:10010000C9C60408C9C60408C9C60408C9C6040883
:10011000D91A0108C9C60408E9CD0108D5CD0108DE
:10012000DDDB0008C9DB0008B5DB0008A1DB000847
:100130008DDB0008C9C60408C9C60408C9C604087E
:10014000C9C60408C9C60408C9C60408F98D03084D
:1001500079DB000865DB000851DB00083D1A010867
:10016000C9C60408C9C60408C9C60408C9C6040823
:10017000C9C60408C9C60408C9C60408C9C6040813
:08018000C9C60408C9C6040841
:08018800D4C1040001000000D5
:100190001002010094310020903100200000000086
:1001A000F40600081A023C00E4500020E454002049
:1001B00000000000B98A000827000400E050002079
:1001C0002055002000000000F606000802000C0088
:1001D0000C5700206C5700200000000000000000B9
:1001E00008120900FC56002078570020000000008B
:1001F0006D840008F7010600F256002084570020A5
:1002000000000000FA0600080A020A005C560020FE
:100210008C570020000000000007000803000100C8
:100220004856002098570020000000000000000001
:1002300014000300146200209063002000000000FE
:100240000C07000810100200806300209463002057
:100250000000000010070008281010007063002044
:1002600098630020000000002913020823001000FA
:10027000605F0020A8630020000000004113020816
:10028000F821060068630020B86300200000000029
:10029000120700080C106C008E5B0020C063002069
:1002A00000000000957D01080E502001445A0020F6
:1002B0002C64002000000000995904081300040079
:1002C000F45F00204C6500200000000018070008C3
:1002D00001010400BE59002050650020000000000C
:1002E0000000000000010400B65900205465002001
:1002F000000000001C07000802010300B1590020A3
:100300005865002000000000BD7D010809020100C1
:100310004C6200205C6500200000000020070008FF
:1003200001020500C65900206065002000000000A1
:10033000C109020800020500E05F00206865002096
:1003400000000000000000001B020800146C0020E8
:100350000880002000000000C5840008012008007B
:100360006C7E0020108000200000000022070008A2
:10037000190005001C7F00201880002000000000EC
:100380002A07000837001E00F47E0020208000208D
:1003900000000000300700081E000500F46900207E
:1003A00040800020000000004E0700081B00F40001
:1003B000D86600204880002000000000E1A5020867
:1003C0000E020200507100203C810020000000005D
:1003D000540700082F001100A47F00204081002056
:1003E000000000005607000805100600E87F002006
:1003F000548100200000000068070008F5317000FB
:10040000506600205C81002000000000D5CD02086D
:1004100026000E00DC810020CC81002000000000BE
:10042000958D02080B201000C2660020108200206B
:10043000000000006E0700081F201C00306600202E
:1004400020820020000000007E0700080502040052
:100450005C6C00203C820020000000009A0700082D
:1004600016000800B8820020C082002000000000B2
:100470009E07000803010A0034950020CC95002057
:1004800000000000A607000813020300F48A002001
:10049000D895002000000000B0070008040080008C
:1004A00014E10020A8E1002000000000000000008E
:1004B0000D003400B0E0002028E200200000000021
:1004C0000901030818202C00E0D700205CE200207E
:1004D00000000000818B0008061018003CCB0020B3
:1004E00088E2002000000000F5590408FB0101002B
:1004F00038CB0020A0E2002000000000558B00084F
:10050000FC01090004CA0020A4E200200000000051
:10051000658B00080A402000DCC90020B0E2002002
:1005200000000000B40700083400100008C90020D3
:10053000D0E2002000000000C959040811020800A0
:10054000E0C80020E0E2002000000000D40700081E
:1005500012120400D8C80020E8E2002000000000C9
:10056000DC07000812200D00C8C80020ECE20020C3
:1005700000000000E0070008FD01210000C6002087
:10058000FCE200200000000025F70008FF01080041
:1005900050BA002020E300200000000061D80008CD
:1005A000F9010400E4B9002028E300200000000065
:1005B0009DF7000818020200ECB300202CE3002095
:1005C000000000000000000017020B00E0B3002054
:1005D00030E300200000000029840008FA01020036
:1005E000BCB300203CE3002000000000C5850008EB
:1005F0000202030030A6002040E3002000000000BB
:10060000000000000C020300ECA5002044E30020E1
:10061000000000001984000811000C0004A800204C
:1006200048E30020000000007D000308FE010900EF
:10063000ECA7002054E3002000000000A58400087F
:10064000031233009CF800204EFD00200000000043
:10065000F007000825009600D0F80020A8FC002034
:100660000000000000000000F6210C00C8FA002085
:1006700024FC002000000000240800081500700081
:10068000D4FA0020B4FB00200000000000000000AD
:100690002A006000D8F6002054FB00200000000073
:1006A000715904082C00100044FB00203EFD00207E
:1006B00000000000D9FC03082B002400E2F9002010
:1006C00081FD002000000000A9FC0308291078002B
:1006D0006AF9002030FC002000000000000000004B
:1006E0001A000E00E4FF00201401012000000000A9
:0406F00030080008C6
:1006F40000002003000024010000D80E00004A017D
:10070400B400D60129000000030000000005040124
:10071400F401190008000430FA0000002900E8037D
:100724006400040A000100002801000020003200D7
:10073400C800D0079600140032002800B004400618
:100744000005500014000F00080100000100000023
:100754000000000000000000000000000000000095
:10076400000000002000020100002B21231E640170
:100774000100000001000A0129000000000000013E
:10078400000000050000010203000000000000005A
:1007940000000000000000000000C409000019016E
:1007A4002828040101006C1600000000000000006D
:1007B400003001000000000064002C010000000073
:1007C400000000000000020000019E077D00463288
:1007D4000000000001010101FFFFFFFF0000000114
:1007E400000005434C5234000000000000000000EB
:1007F40000000000000000000000000000000000F5
:1008040000000000000000000000000000000000E4
:1008140000000000000000000000000000000100D3
:100824000000000001000000020200007E05EA054D
:0A083400B4053200E803D00700000D
:10083E001A0300000000000000000000000000008D
:10084E000000000000000000000000000403090486
:10085E001201000200000040830420570002010232
:10086E00030100007192000821850008D191000853
:10087E00058500082D920008E1910008F584000816
:10088E00DC000020E5A800080D8500080985000899
:10089E0001850008D98C0008FD840008F984000841
:1008AE0034E2040831890308414F0308198803080C
:1008BE000000000000000000697D0308917D030820
:1008CE00000000000000000000000000A14D030821
:1008DE00B9850008AD850008CD920008E9920008A0
:1008EE0065850008B192000895920008010000008D
:1008FE005001000007000000020000000000000090
:10090E00000000000102030406070809008002022D
:10091E001F00000053544D202020202050726F6481
:10092E00757420202020202020202020302E3031D1
:10093E00010102FFFF000000010000000000803FE7
:10094E00000000000000000000000000FF0000009A
:10095E00000000005C5700200800000000000000AE
:10096E004C57002008000000D0EE040805080400D3
:10097E0000000000E4F40408ECFF0408D0F40408BE
:10098E000000000000000000FCEE040805080A004C
:10099E0000000000E4F40408ECFF0408B0F30408BF
:1009AE000000000000000000E00101010100000055
:1009BE00AD0B020800000000F4020020203F0508E5
:1009CE000000000000000000000000000000000019
:1009DE00904105080000000000000000790300208F
:1009EE00040000007C3D05080D0000009939020846
:1009FE00641D002000000000B83605080D00000040
:100A0E00C1390208581D00200000000038380508C2
:100A1E0008000000000000004C1D00200400000033
:100A2E00243705080D000000610C0208401D00204F
:100A3E0000000000E837050803000000113C020822
:100A4E00341D002000000000303F050803000000A8
:100A5E00113C0208281D002000000000F432050899
:100A6E000100000000000000000000000000000077
:100A7E00000000000E00000000000000000000005A
:100A8E0000000000203F05080000000000000000EC
:100A9E00000000000000000090410508000000006A
:100AAE00000000007903002004000000283D050826
:100ABE0003000000D12D02081C1D002008000000BC
:100ACE00243705080D000000610C0208401D0020AF
:100ADE0000000000E837050803000000113C020882
:100AEE00341D002000000000303F05080300000008
:100AFE00113C0208281D002000000000F4320508F9
:100B0E0001000000000000000000000000000000D6
:100B1E00000000000E0000000000000000000000B9
:100B2E0000000000383F0508000000000000000033
:100B3E0000000000000000009041050800000000C9
:100B4E00000000007903002004000000303D05087D
:100B5E0003000000113C0208701D00200000000080
:100B6E00F432050801000000000000000000000043
:100B7E0000000000000000000E0000000000000059
:100B8E00000000000000000020700020702D720098
:100B9E00D601010000010101000800000000000064
:100BAE0000000000D8180020012D202D2D202D2D05
:100BBE002D2D202D2D2D0000000000000000000026
:100BCE000000000000000000FFFFFFFFFA00000021
:100BDE00010000000100000001000000C432050801
:100BEE00CC320508EC3205080000000000000000C1
:100BFE000000000000000000A82C05080400000002
:100C0E00613702080000000000000000F432050801
:100C1E0001000000000000000000000000000000C5
:100C2E00000000000E0000000000000000000000A8
:100C3E0000000000D26900200100C409000000007D
:100C4E00D06900200100C40900000000CE69002018
:100C5E000100C40900000000CC6900200100C40995
:100C6E0000000000C86900200100C4090000000057
:100C7E00CA6900200100C40900000000C6690020F6
:100C8E000100C40900000000C46900200100C4096D
:100C9E0000000000D85900200100C800010000002B
:100CAE00D65900203200307532000000D459002091
:100CBE00055A0500D159002000FF0100D35900202C
:100CCE0001000000AC030020CF59002002000000FC
:100CDE008CF80408D059002000FF0100D2590020E2
:100CEE0001000000AC030020CE59002002000000DD
:100CFE008CF80408C459002080C1803E0500000015
:100D0E00C259002080C1803E05000000BC59002061
:100D1E0080C1803E05000000BA59002080C1803E8F
:100D2E0005000000B459002000FF0100B05900205A
:100D3E000A320100AF5900200400000090F30408AD
:100D4E00AE59002002000000A4F3040800000000C9
:100D5E0000000000B4030020789500209CFF2C01B9
:100D6E00000000007A0100200A000000B0F3040821
:100D7E00A4590020E0150C17000000007C01002093
:100D8E0008000000ECFF04087B01002005000000B5
:100D9E00E4F40408A659002002000000C8F3040879
:100DAE00145C00200100FF7F01000000135C002096
:100DBE0002000000D4F30408375A0020030000009C
:100DCE00E4F30408365A002003000000E4F304089C
:100DDE006E5B00200000F401010000006C5B00203F
:100DEE000000F401010000006A5B00200000F40125
:100DFE0001000000685B00200000F401010000000B
:100E0E00665B00200000803E01000000645B002055
:100E1E000000803E010000008A5B0020E803D0073E
:100E2E000A000000885B0020006401000A00000038
:100E3E007D5B0020006401007C5B002000640100EB
:100E4E00845B0020006401000A000000835B002028
:100E5E00006401000A000000825B002000640100B3
:100E6E000A000000875B0020006401000A000000F9
:100E7E00865B0020006401000A000000855B0020F4
:100E8E00006401000A000000815B002000FF0100E9
:100E9E000A000000805B002000FF01000A00000035
:100EAE007F5B002000FF01000A000000405A002076
:100EBE000000F401010000003E5A00200000F40181
:100ECE00010000003C5A00200000F4010100000067
:100EDE003A5A00200000F40101000000385A0020A8
:100EEE000000F401010000007A5B002000640100A4
:100EFE00785B00201400E80301000000765B002000
:100F0E00E80330750A000000745B002000C8010081
:100F1E00735B002000C80100725B002000C8010056
:100F2E00715B0020006401000A000000085C0020D4
:100F3E000000D00701000000035C002000C8010083
:100F4E00025C002000C80100015C002000C8010006
:100F5E00065C00200000D00701000000005C0020AD
:100F6E0000C80100FF5B002000C80100FE5B0020EE
:100F7E0000C80100045C00200000D0070100000042
:100F8E00FD5B002000C80100FC5B002000C80100D2
:100F9E00FB5B002000C801002433050800000000A0
:100FAE0000000000000000000000000034330508BF
:100FBE00090000000000000058040020040000009A
:100FCE003C33050809000000000000004C0400201E
:100FDE0004000000FC3A05080900000000000000B3
:100FEE0040040020040000007043050809000000C2
:100FFE000000000034040020040000004433050803
:10100E000900000000000000280400200400000079
:10101E004C33050809000000000000001C040020ED
:10102E000400000054330508090000000000000011
:10103E0010040020040000005C33050809000000C5
:10104E00000000000404002004000000F432050833
:10105E000100000000000000000000000000000081
:10106E00000000000E000000000000000000000064
:10107E000000000098350508000000000000000088
:10108E00000000000000000050730508070000007B
:10109E00000000007C04002000000000A8350508B8
:1010AE000800000000000000700400200000000096
:1010BE00B43505080800000000000000640400209C
:1010CE0000000000F43205080100000000000000DE
:1010DE000000000000000000000000000E000000F4
:1010EE00000000000000000000000000BC350508F4
:1010FE0000000000000000000000000000000000E2
:10110E00CC3505080D00000000000000B8040020DA
:10111E0000000000D43505080D000000000000009E
:10112E00AC04002000000000DC35050807000000BC
:10113E0000000000A404002000000000E4350508B3
:10114E000D000000000000009804002000000000C8
:10115E00EC3505080D000000000000008C04002096
:10116E0000000000F4350508070000000000000034
:10117E008404002000000000F43205080100000085
:10118E000000000000000000000000000000000051
:10119E000E00000000000000000000000000000033
:1011AE00FC350508000000000000000000000000F3
:1011BE0000000000507305080C0000000000000045
:1011CE00DA59002000000000103605080C0000005F
:1011DE0000000000DC590020000000002036050849
:1011EE000C00000000000000125A00200000000059
:1011FE00303605080C00000000000000065A0020E2
:10120E0000000000443605080C000000000000003D
:10121E00DE59002000000000503605080C000000CA
:10122E0000000000E05900200000000058360508BC
:10123E000C00000000000000E25900200000000039
:10124E006C3605080C00000000000000E459002078
:10125E0000000000743605080C00000000000000BD
:10126E00E6590020000000007C3605080C00000046
:10127E0000000000245A00200000000094360508EB
:10128E000C00000000000000E859002000000000E3
:10129E00A03605080C00000000000000EA590020EE
:1012AE0000000000A83605080C0000000000000039
:1012BE00EC59002000000000B43605080C000000B8
:1012CE0000000000EE59002000000000C0360508A6
:1012DE000C00000000000000F0590020000000008B
:1012EE00CC3605080C00000000000000F25900206A
:1012FE0000000000D83605080C00000000000000B9
:10130E00F459002000000000E43605080C0000002F
:10131E0000000000F659002000000000F03605081D
:10132E000C000000000000000A5A0020000000001F
:10133E00F83605080C00000000000000085A0020D6
:10134E0000000000003705080C000000000000003F
:10135E00165A0020000000000C3705080C00000093
:10136E0000000000185A0020000000001837050881
:10137E000C000000000000001E5A002000000000BB
:10138E000C3405080C00000000000000F859002085
:10139E0000000000243705080C00000000000000CB
:1013AE00005A0020000000002C3705080C00000039
:1013BE0000000000FA590020000000003837050830
:1013CE000C00000000000000FC590020000000008E
:1013DE00443705080C00000000000000FE590020F4
:1013EE00000000004C3705080C0000000000000053
:1013FE00025A002000000000583705080C000000BB
:10140E00000000000C5A00200000000060370508A4
:10141E000C00000000000000045A00200000000034
:10142E006C3705080C00000000000000145A002064
:10143E0000000000783705080C00000000000000D6
:10144E000E5A002000000000803705080C00000036
:10145E0000000000105A0020000000008837050828
:10146E000C000000000000001A5A002000000000CE
:10147E00903705080C000000000000001C5A0020E8
:10148E0000000000983705080C0000000000000066
:10149E002E5A002000000000F43205080100000062
:1014AE00000000000000000000000000000000002E
:1014BE000E00000000000000000000000000000010
:1014CE00A03705080000000000000000000000002A
:1014DE0000000000AC3705080D0000000000000001
:1014EE001005002000000000B43705080D000000B4
:1014FE00000000000405002000000000BC370508B5
:10150E000700000000000000FC04002000000000A6
:10151E00C83705080700000000000000F404002092
:10152E0000000000D437050809000000000000008C
:10153E00E804002000000000E03705080900000064
:10154E0000000000DC04002000000000EC3705085D
:10155E000900000000000000D00400200000000080
:10156E00FC3705080900000000000000C40400203C
:10157E0000000000F4320508010000000000000029
:10158E000000000000000000000000000E0000003F
:10159E0000000000000000000000000010380508E8
:1015AE00000000000000000000000000000000002D
:1015BE00203805080500000000000000355A002004
:1015CE0000000000F43205080100000000000000D9
:1015DE000000000000000000000000000E000000EF
:1015EE000000000000000000000000002838050880
:1015FE0000000000000000000000000000000000DD
:10160E00904105080000000000000000C8240020E2
:10161E0004000000343805080D000000C53702082C
:10162E0064050020000000007C3D05080D00000050
:10163E00650B02085805002000000000B8360508AA
:10164E000D000000490B02084C05002000000000B0
:10165E003838050808000000000000004005002092
:10166E0004000000243705080D000000930A02084C
:10167E003405002000000000403805080900000075
:10168E00000000002805002004000000E8370508CF
:10169E0003000000113C02081C05002000000000A1
:1016AE00F4320508010000000000000000000000F8
:1016BE0000000000000000000E000000000000000E
:1016CE00000000000000000048380508000000007F
:1016DE00000000000000000000000000583805085F
:1016EE000D000000000000007C050020000000003E
:1016FE00603805080A00000000000000516000205C
:10170E00000000006C3805080A0000000000000010
:10171E005960002000000000743805080A0000001F
:10172E000000000061600020000000007C38050809
:10173E0008000000000000007005002000000000FE
:10174E008438050804000000313E02080000000045
:10175E0000000000F4320508010000000000000047
:10176E000000000000000000000000000E0000005D
:10177E000000000000000000000000009038050886
:10178E00000000000000000000000000000000004B
:10179E00A43805080D00000000000000940500208C
:1017AE0000000000B4380508040000003D3A0208AD
:1017BE000000000000000000BC3805080D0000000D
:1017CE00000000008805002000000000D038050849
:1017DE0004000000193A020800000000000000009A
:1017EE00F4320508010000000000000000000000B7
:1017FE0000000000000000000E00000000000000CD
:10180E000000000000000000D838050800000000AD
:10181E00000000000000000000000000EC38050889
:10182E000800000000000000DC05002000000000A1
:10183E00F83805080800000000000000D005002060
:10184E000000000004390508080000000000000038
:10185E00C405002000000000103905080800000033
:10186E0000000000B8050020000000001C3905082B
:10187E000800000000000000AC0500200000000081
:10188E00283905080800000000000000A00500200F
:10189E0000000000F4320508010000000000000006
:1018AE000000000000000000000000000E0000001C
:1018BE0000000000000000000000000034390508A0
:1018CE0000000000000000005B030020000000008C
:1018DE00403905080B0000000000000070060020D3
:1018EE00000000004C3905080B000000000000004D
:1018FE006406002000000000583905080B000000A7
:10190E0000000000580600200000000064390508A1
:10191E000B000000000000004C060020000000003C
:10192E00703905080B000000000000004006002082
:10193E00000000007C3905080B00000000000000CC
:10194E003406002000000000883905080B00000056
:10195E000000000028060020000000009439050851
:10196E000B000000000000001C060020000000001C
:10197E00A03905080B000000000000001006002032
:10198E0000000000AC390508070000000000000050
:10199E000806002000000000B4390508070000000A
:1019AE00000000000006002000000000C0390508FD
:1019BE000B00000000000000F405002000000000F5
:1019CE00CC3905080800000000000000E8050020E2
:1019DE0000000000F43205080100000000000000C5
:1019EE000000000000000000000000000E000000DB
:1019FE00000000000000000000000000D8390508BB
:101A0E0000000000000000000000000000000000C8
:101A1E00EC3905080800000000000000AC060020AC
:101A2E0000000000F8390508080000000000000062
:101A3E00A006002000000000043A0508080000007F
:101A4E00000000009406002000000000103A050877
:101A5E0008000000000000008806002000000000C2
:101A6E001C3A050808000000000000007C0600205B
:101A7E0000000000F4320508010000000000000024
:101A8E000000000000000000000000000E0000003A
:101A9E00000000000000000000000000243A0508CD
:101AAE0000000000000000005803002000000000AD
:101ABE00343A05080B00000000000000F00600207C
:101ACE0000000000403A050807000000000000007A
:101ADE00E8060020000000004C3A05080700000050
:101AEE0000000000E006002000000000583A050843
:101AFE000700000000000000D806002000000000D3
:101B0E00643A05080800000000000000CC06002022
:101B1E00000000006C3A05080800000000000000FC
:101B2E00C006002000000000743A050807000000FF
:101B3E0000000000B806002000000000F432050886
:101B4E000100000000000000000000000000000086
:101B5E00000000000E000000000000000000000069
:101B6E0000000000803A05080000000000000000A0
:101B7E0058030020000000008C3A05080700000002
:101B8E00000000006007002000000000943A0508E5
:101B9E0007000000000000005807002000000000B1
:101BAE009C3A0508070000000000000050070020C6
:101BBE0000000000A43A0508080000000000000024
:101BCE004407002000000000AC3A050807000000A2
:101BDE00000000003C07002000000000B43A050899
:101BEE000700000000000000340700200000000085
:101BFE00BC3A050807000000000000002C0700207A
:101C0E0000000000C43A05080800000000000000B3
:101C1E002007002000000000CC3A05080700000055
:101C2E00000000001807002000000000D43A05084C
:101C3E000700000000000000100700200000000058
:101C4E00DC3A05080700000000000000080700202D
:101C5E0000000000E43A0508080000000000000043
:101C6E00FC06002000000000F43205080100000010
:101C7E000000000000000000000000000000000056
:101C8E000E00000000000000000000000000000038
:101C9E0000000000D50E020868070020335A00200D
:101CAE002B000000F4F30408325A002000C8010093
:101CBE00305A0020E803D00701000000434C524187
:101CCE0043494E4746340000CD5900200003010021
:101CDE00CC590020000301001D0E0208F50D02086C
:101CEE0044080020B10D0208650D0208BC08002052
:101CFE005D0E0208450E020870090020D10C020884
:101D0E00850C0208900C0020EB0E0208E93902083F
:101D1E006C0D0020D10A020800000000BC0D00204E
:101D2E000D3E020889110208980E0020110F0208BC
:101D3E00000000004C0F0020C90F0208950F02088A
:101D4E00D80F002059100208A51002088C10002090
:101D5E007B5B002001060100590F0208250F0208C7
:101D6E00CC110020FD0F0208613A02086C1200200F
:101D7E00D5100208BD3A020834130020705B002013
:101D8E0001030100EC3A050800000000000000000D
:101D9E000000000000000000F83A050808000000EE
:101DAE00000000008014002000000000003B050829
:101DBE000700000000000000781400200000000062
:101DCE00103B05080D000000000000006C14002000
:101DDE00000000001C3B050803000000113C020837
:101DEE006014002000000000F4320508010000001D
:101DFE0000000000000000000000000000000000D5
:101E0E000E000000000000000000000000000000B6
:101E1E00243B050800000000000000000000000048
:101E2E0000000000343B05080A000000000000001E
:101E3E003C3B050800000000443B05080A0000007A
:101E4E0000000000042B0508000000004C3B0508B4
:101E5E000A000000000000000A5C002000000000E4
:101E6E00543B05080A000000000000008C140020FE
:101E7E0000000000F4320508010000000000000020
:101E8E000000000000000000000000000E00000036
:101E9E000000000000000000000000005C3B050890
:101EAE000000000000000000000000000000000024
:101EBE00683B050803000000113C0208C014002016
:101ECE0000000000743B050803000000113C0208EE
:101EDE00B4140020000000007C3B05080300000045
:101EEE00113C0208A814002000000000843B0508E5
:101EFE000500000000000000CB590020000000008B
:101F0E008C3B05080700000000000000A014002014
:101F1E0000000000983B05080700000000000000CC
:101F2E009814002000000000F432050801000000A3
:101F3E000000000000000000000000000000000093
:101F4E000E00000000000000000000000000000075
:101F5E00A43B050800000000000000000000000087
:101F6E0000000000B83B050803000000113C020809
:101F7E00F014002000000000C43B05080300000020
:101F8E00113C02088001002000000000CC3B050837
:101F9E0003000000113C0208E414002000000000C1
:101FAE00D43B050803000000113C0208D8140020A1
:101FBE00000000002437050803000000113C020851
:101FCE00CC14002000000000F432050801000000CF
:101FDE0000000000000000000000000000000000F3
:101FEE000E000000000000000000000000000000D5
:101FFE00E03B0508000000000000000000000000AB
:10200E0000000000F03B050807000000193B020825
:10201E004C150020000000004837050803000000A2
:10202E00113C02084015002000000000FC3B050892
:10203E0003000000113C02083415002000000000CF
:10204E00043C050803000000113C0208281500207E
:10205E00000000000C3C050807000000FD3A0208D5
:10206E002015002000000000B0430508030000000A
:10207E00113C02081415002000000000183C050851
:10208E0003000000113C02080815002000000000AB
:10209E00243C050803000000113C0208FC1400203B
:1020AE0000000000F43205080100000000000000EE
:1020BE000000000000000000000000000E00000004
:1020CE00000000000000000000000000A50E020845
:1020DE00750E02085415002055110208000000006C
:1020EE00E0150020410D02081D0D02086C1600209F
:1020FE000000000000000000201700202D11020833
:10210E00353B0208C0170020303C050800000000D7
:10211E000000000000000000000000003C3C05082C
:10212E0003000000113C0208CC1800200000000043
:10213E00443C050803000000113C0208C0180020B2
:10214E0000000000503C050803000000113C02088E
:10215E00B418002000000000543C050803000000E5
:10216E00113C0208A818002000000000603C050881
:10217E0003000000113C02089C1800200000000023
:10218E00683C050802000000C53E02080000000081
:10219E0000000000703C050802000000C53E020869
:1021AE0001000000000000007C3C05080200000059
:1021BE00C53E020802000000000000000000000002
:1021CE000E000000000000000000000000000000F3
:1021DE00AA59002088136F1701000000AC59002087
:1021EE0088136F1700000000883C050800000000EF
:1021FE00000000000000000000000000983C0508F0
:10220E000800000000000000AC19002004000000CF
:10221E00A43C05080800000000000000A0190020E2
:10222E0000000000E837050804000000ED37020842
:10223E000000000000000000F4320508010000005C
:10224E000000000000000000000000000000000080
:10225E000E00000000000000000000000000000062
:10226E00A859002088136F1701000000BA950020AE
:10227E0088136F1700000000150C02080000000004
:10228E00B8190020F25F002001000000A4F4040839
:10229E00BC95002001000000B0F40408B2950020A7
:1022AE0002000000B8F40408CA93002000000000E9
:1022BE0000000000C8930020000000000000000095
:1022CE00C69300200000000000000000C493002010
:1022DE000000000000000000C2930020000000007B
:1022EE0000000000C093002000000000000000006D
:1022FE00042500200000000000000000A759002067
:10230E0002000000C4F40408E03C050800000000D0
:10231E00000000000000000000000000983C0508CE
:10232E0008000000000000003C1A0020040000001D
:10233E00A43C05080800000000000000301A002030
:10234E0000000000E837050804000000E50B020855
:10235E000000000000000000F4320508010000003B
:10236E00000000000000000000000000000000005F
:10237E000E00000000000000000000000000000041
:10238E00F03C050800000000000000000000000006
:10239E0000000000003D05080D0000003D39020858
:1023AE006C1A0020040000000C3D05080D00000012
:1023BE003D0C0208601A002004000000183D0508BC
:1023CE000D00000001390208541A00200000000020
:1023DE00243D050803000000F12D0208481A0020D4
:1023EE0008000000303D050803000000113C020803
:1023FE00701D002000000000F432050801000000EE
:10240E0000000000000000000000000000000000BE
:10241E000E000000000000000000000000000000A0
:10242E00EC32050800000000000000000000000073
:10243E0000000000A82C0508040000000538020862
:10244E000000000000000000F4320508010000004A
:10245E00000000000000000000000000000000006E
:10246E000E00000000000000000000000000000050
:10247E00843D050800000000000000000000000080
:10248E0000000000645A05080D0000000000000066
:10249E00CC1A002004000000943D0508080000003E
:1024AE0000000000C01A002004000000A03D050836
:1024BE000800000000000000B41A00200400000014
:1024CE00A83D05080800000000000000A81A002022
:1024DE0004000000B03D05080800000000000000E8
:1024EE009C1A002004000000B83D050808000000FA
:1024FE0000000000901A002004000000C03D0508F6
:10250E000800000000000000841A002004000000F3
:10251E00C83D05080800000000000000781A0020E1
:10252E0004000000F4320508010000000000000065
:10253E000000000000000000000000000E0000007F
:10254E00000000000000000000000000FD0B02086B
:10255E0000000000D81A002000000000000000005B
:10256E00501B00200000000000000000F01B0020A7
:10257E00B895002004000000D0F40408B6950020A1
:10258E00E0150C1700000000B595002008000000B3
:10259E00ECFF0408B495002005000000E4F40408E4
:1025AE000000000000000000401C002001000000A0
:1025BE00000001FFFF0100000000803FFF1FFF1F12
:1025CE00EC81002000000000BC220020040000006E
:1025DE00B84405085C4405080000000051000308DB
:1025EE00A0860100040000000000000000000000B2
:1025FE0000000000000000000000000000000000CD
:10260E0000000000B8440508C044050800000000A2
:10261E001DFA0008E803000004000000000000009E
:10262E00000000000000000000000000000000009C
:10263E00000000000000000048370508C8440508E7
:10264E0000000000B18501087D00000006000000BA
:10265E00000000000000000000000000000000006C
:10266E00000000000000000000000000D04405083B
:10267E00000000000000000095680108E80300005B
:10268E000300000000000000000000000000000039
:10269E00000000000000000000000000000000002C
:1026AE00D44405080000000000000000B15C0408DE
:1026BE0010270000030000000000000000000000D2
:1026CE0000000000000000000000000000000000FC
:1026DE0000000000E044050800000000CD2B0208B9
:1026EE000D4C01085F7600000500000000000000A0
:1026FE0000000000000000000000000000000000CC
:10270E000000000000000000307505080000000009
:10271E00000000002D6D01081027000001000000D0
:10272E00000000000000000000000000000000009B
:10273E00000000000000000000000000E444050856
:10274E000000000000000000F5F30008E8030000A0
:10275E000500000000000000000000000000000066
:10276E00000000000000000000000000000000005B
:10277E00F0440508000000000000000049F80108C0
:10278E00204E0000030000000000000000000000CA
:10279E00000000000000000000000000000000002B
:1027AE0000000000004505080000000000000000C9
:1027BE0035F60108204E0000030000000000000066
:1027CE0000000000000000000000000000000000FB
:1027DE000000000000000000104505080000000089
:1027EE0000000000ADF70008400D030003000000DC
:1027FE0000000000000000000000000000000000CB
:10280E000000000000000000000000002045050848
:10281E000000000000000000C50D03081027000096
:10282E000100000000000000000000000000000099
:10283E00000000000000000000000000000000008A
:10284E0084440508000000000000000089D802083A
:10285E001027000003000000000000000000000030
:10286E00000000000000000000000000000000005A
:10287E00000000000C3405080000000000000000FD
:10288E00FDF20008A8610000010000000000000039
:10289E00000000000000000000000000000000002A
:1028AE0000000000000000002845050800000000A0
:1028BE0000000000611D0108A00F000001000000D3
:1028CE0000000000000000000000000000000000FA
:1028DE000000000000000000000000003445050864
:1028EE000000000000000000E1A102081027000017
:1028FE0001000000000000000000000000000000C9
:10290E0000000000000000000000000000000000B9
:10291E004045050800000000000000004D010308BE
:10292E00A00F0000010000000000000000000000E9
:10293E000000000000000000000000000000000089
:10294E0000000000503C05080000000000000000E0
:10295E00E9F702081A410000010000000000000023
:10296E000000000000000000000000000000000059
:10297E000000000000000000CC330508000000003D
:10298E0000000000898A02081027000001000000E4
:10299E000000000000000000000000000000000029
:1029AE000000000000000000000000007044050858
:1029BE000000000000000000155E02081A41000031
:1029CE0001000000000000000000000000000000F8
:1029DE0000000000000000000000000000000000E9
:1029EE004C450508000000000000000045B202083A
:1029FE00400D030000000000000000000000000079
:102A0E0000000000000000000000000000000000B8
:102A1E000000000054450508000000000000000002
:102A2E00C5000308400D0300000000000000000078
:102A3E000000000000000000000000000000000088
:102A4E0000000000000000005C45050800000000CA
:102A5E00000000003DE6020850C300000300000025
:102A6E000000000000000000000000000000000058
:102A7E00000000000000000000000000684505088E
:102A8E000000000000000000A9F5010840420F0000
:102A9E000000000000000000000000000000000028
:102AAE000000000000000000000000000000000018
:102ABE007445050800000000000000006D020308C8
:102ACE0050C30000000000000000000000000000E5
:102ADE0000000000000000000000000000000000E8
:102AEE000000000001000000FFFFFFFF00020005D4
:102AFE001002700BB9530308854F0308DD810308DC
:102B0E0000000000F14D0308918903086D5303087E
:102B1E00157F03080000000000000000AD4D030803
:102B2E006D4C0308614C0308317603084D7603089B
:102B3E0015760308F9750308DD750308715303084C
:102B4E00614F03081D81030800000000C54D0308F6
:102B5E00197F030841530308757E03080000000027
:102B6E0000000000B94D030804030904120100021D
:102B7E00EF020140830456320002010203010000FD
:102B8E0012010002020200408304405700020102BB
:102B9E000301000009022000010104C032090400F3
:102BAE0000020806500507058102400000070501D6
:102BBE000240000009026400030100C03209040053
:102BCE000001030000000921110100012226000767
:102BDE0005830308000A080B010202020100090422
:102BEE00010001020201000524001001052401006C
:102BFE0002042402020524060102070582030800CE
:102C0E00FF09040200020A0000000705010240004D
:102C1E00000705810240000009024300020100C0C6
:102C2E003209040000010202010005240010010512
:102C3E002401000104240202052406000107058276
:102C4E00030800FF09040100020A00000007050145
:102C5E00024000000705810240000000FF00000056
:102C6E0000FFFF0000000000AA5505010000000053
:102C7E0005010905A101A10005010930093109323B
:102C8E00093309350934094009381581257F75083E
:102C9E0095088102C0C0000009022200010100E077
:102CAE003209040000010301020009211101000193
:102CBE002226000705830308000A0000000000001A
:102CCE00010203040102030406070809BD7F03087D
:102CDE0085860308018203082D4E03085150030810
:102CEE003D4E0308594E0308054E0308F54D0308E3
:102CFE0000000000000000002D202D2D202D2D2D78
:102D0E002D202D2D2D2D00000000000000000000B4
:102D1E0000000000000000AA550B010000AA550794
:102D2E00010000AA550902000000AA5503009F00E9
:102D3E0001000000C0120000080000005D4C0308F6
:102D4E00594C0308554C0308494C0308454C0308DD
:102D5E00514C03084D4C03080060024010600240C5
:102D6E000000000000000000000B0000000000004A
:102D7E0000000000000000000060024028600240D9
:102D8E000100000000000000060C00000000000022
:102D9E0000000000000000000060024040600240A1
:102DAE000200000000000000100D000000000000F6
:102DBE000000000000000000006002405860024069
:102DCE000300000000000000160E000000000000CE
:102DDE000000000000000000006002407060024031
:102DEE000400000000000000200F000000000000A2
:102DFE0000000000000000000060024088600240F9
:102E0E000500000000000000261000000000000079
:102E1E00000000000000000000600240A0600240C0
:102E2E00060000000000000030110000000000004D
:102E3E00000000000000000000600240B860024088
:102E4E000700000000000000362F00000000000008
:102E5E000000000000000000006402401064024008
:102E6E00000000000000000000380000000000001C
:102E7E0000000000000000000064024028640240D0
:102E8E0001000000000000000639000000000000F4
:102E9E000000000000000000006402404064024098
:102EAE000200000000000000103A000000000000C8
:102EBE000000000000000000006402405864024060
:102ECE000300000000000000163B000000000000A0
:102EDE000000000000000000006402407064024028
:102EEE000400000000000000203C00000000000074
:102EFE0000000000000000000064024088640240F0
:102F0E000500000000000000264400000000000044
:102F1E00000000000000000000640240A0640240B7
:102F2E000600000000000000304500000000000018
:102F3E00000000000000000000640240B86402407F
:102F4E0007000000000000003646000000000000F0
:102F5E00000000000000000001000000FFFF000064
:102F6E00FFFFFFFF0000803F000000000000000098
:102F7E00000000000000803F000000000000000084
:102F8E000000000000000000000000000000000033
:102F9E000000000000000000000000000100000022
:102FAE000000803F00000000000000000000000054
:102FBE000000803F88270020000000000000000075
:102FCE0000000000000000000000000000000000F3
:102FDE0000000000000000000000000000000000E3
:102FEE0000000000000000000000000000000000D3
:102FFE0000000000000000000000000000000000C3
:10300E0000000000000000000000000000000000B2
:0C301E00000000000000000001000000A5
:1080000090ED057A90ED004AD0ED066AD0ED014A78
:10801000D0ED047A90ED035AD0ED025AA4EE007A26
:10802000B0EE406AB0EE470AB0EE667AA4EE867A09
:1080300067EEC07AA5EE407AE5EE867A80ED057AA5
:10804000C0ED067A704700BFD0ED057A90ED013A99
:10805000D0ED003AD0ED064A90ED024A90ED077A55
:1080600090ED035A90ED086AD0ED045AC0ED067AFF
:10807000F0EE406A27EE830AC0ED056AA3EEA60A79
:1080800080ED087AA4EE240AA5EE470AA5EEC60AFA
:1080900080ED070A704700BFD0ED007A90ED017ABD
:1080A00030EE670AE7EE007AB0EE670AC0ED007ABC
:1080B000704700BF704700BF2DE9F04714461D46CA
:1080C00006464FF47A7200232046294644F0E2F82F
:1080D0004D4BDFF848814D4A4D4F034488FB031058
:1080E0001844D91782FB032CC1EB601088FB0028D1
:1080F00087FB03279C44474AC1EBEC2CC0EB001ED6
:1081000082FB0C29A3EB8E0E1F44434A86F806E03F
:10811000C1EB27474FEAEC7E08EB000ACEEBA90E35
:1081200082FB07824FEAE0780EEB4E0EC8EB6A182E
:10813000ACEBCE0CC8EB0818DFF8E4E086F804C01E
:10814000A0EB880070718EFB0303F817C0EBE212FE
:1081500040F2B55000FB1272C1EBE353B2F5896FE8
:108160004FEA83073CDA40F2DA239A4242DCB2F566
:10817000B77FB4BF4FF0000E4FF0010E4FEA4E092B
:10818000DFF8A08009EB0E0308EBC3031FFA8EFC97
:10819000D88A09EB0E0108EBC10116310B2301E06F
:1081A00031F8020D904218DD013BF9D1CE44012394
:1081B00038F83E00B37007F5FA670132121ABC4472
:1081C000F270A6F800C0204629464FF47A720023C8
:1081D00044F060F83281BDE8F0870133DBB2E9E7B3
:1081E0004FF0030CE64640F29650DFF838804FF02F
:1081F0000609CEE74FF0020CDFF82880E64640F291
:1082000029404FF00409C4E780BC92C7C5B3A291CE
:1082100007452EC2ABAAAA2A73B06D168988888832
:10822000792D0311F8DF040830B403888278C4780C
:10823000154DA3F5FA6303F0030101EB4101013A87
:1082400002EB81029B0835F812500279611E40F260
:10825000B55404FB03132B4403EB430302EBC303AA
:108260004279847909490089C3EB031302EB830344
:108270002144C3EB031301EB83034FF47A72002113
:10828000C2FB030130BC7047F8DF040880436D383F
:108290000028F0B403DA2D230B7040420131092885
:1082A00004464FF0010307DD03EB83035B00B0FBE3
:1082B000F3F2092AF8D883B10F48A0FB0326B4FBD8
:1082C000F3F2092A02F1570C02F1300709DD03FB32
:1082D0001244F30801F801CBEFD100230B70F0BC7E
:1082E000704703FB1244F30801F8017BE5D100233A
:1082F0000B70F0BC704700BFCDCCCCCC884270B4C2
:108300004FF0010442D301FB04F4B0FBF4F58D42BD
:10831000F9D2ECB142BB092D04FB150005F157065B
:1083200005F130020EDDB4FBF1F403F8016B7CB112
:10833000B0FBF4F5092D04FB150005F1570605F116
:108340003002F0DCB4FBF1F403F8012B002CEFD188
:1083500000221A7070BC704703F8016BB4FBF1F493
:10836000002CF5D0B0FBF4F5092D04FB150005F148
:10837000370605F13002EFDCB4FBF1F403F8012B12
:10838000002CEFD100221A7070BC70470546002AFD
:10839000EAD1C0E703685A1C02601970704700BF39
:1083A0002DE9F047089C2578002B804689460CBFB4
:1083B0004FF0200A4FF0300A661C25B3002A26DD54
:1083C000334601E0024698B113F8011B501E002904
:1083D000F8D1971E60B13D46013D51464046C84721
:1083E0006B1C002BF8DC257827EAE770013045B1DB
:1083F000041B29464046C847301916F8015B002D7A
:10840000F7D1BDE8F087002A03DC2846F9E7002011
:10841000EEE7571EDFE700BF01211F220323017093
:1084200042708370704700BFF0B400250E4E00F11B
:10843000FF3C2F46142165B103788B420BD00346D5
:108440000CEB050403E013F8012F8A4203D0A3428A
:10845000F9D1C155013701350B2D02D016F8011F96
:10846000E9E7F0BC704700BF58E004080C4AF0B4DC
:10847000002302F1080717261625152403EB4303F2
:10848000C118BA42C4544D708E7006D092F90430AF
:1084900054799579D6790432F0E7F0BC704700BF83
:1084A00064E00408012310B43121322433224470E3
:1084B0004171C27003720370037183705DF8044BE5
:1084C000704700BF06224FF47A7302704360704712
:1084D00030B41D6995420AD314460A4621448D42A0
:1084E000996938BF2A1B214430BC44F023B930BC01
:1084F000704700BF00207047002070470120704780
:108500000120704700207047002070474FF4007032
:10851000024B10609B680B600020704758BA002027
:1085200003484FF40073806A0860002013607047AE
:10853000E8B90020013A30B4D2B28C1C04EB4204FA
:108540000025020F092AD3B203F130028ABF373364
:108550000A700B704D7002318C424FEA0010F0D15E
:1085600030BC70470B4A0C4B10681B681A22C018AD
:108570000A8001D10948704710B5094B09491C68A8
:108580000822FFF7D7FF204604220749FFF7D2FF52
:10859000024810BDE8F7FF1FECF7FF1F00000020A6
:1085A000EAF7FF1F020000201200002004230B80C6
:1085B000004870471C00002012230B8000487047C1
:1085C000200000202322032302704370704700BF65
:1085D00008307047704700BF816170474FF40063F7
:1085E000838270474FF40063838270474FF40063C7
:1085F00083827047012380F854307047F0B4037CC5
:10860000456902681F2B37D9203B202154689940C7
:108610000C4223D010249C40D160D4605168D940D2
:10862000CE074ED4EFF31183502282F31288EA6B07
:108630001168C90709D45468002C52D1D5E90961E1
:108640008E4243D1012285F86020DBB283F311888A
:10865000037C02681F2B194614D9203B082150685F
:108660009940084200D0D1600421506801FA03F318
:10867000184223D1F0BC7047202416689C40264243
:108680000FD11946082310688B40184200D0936020
:108690000423106803FA01F10842EBD09160F0BCAA
:1086A000704710219940946091601168D940CC07BF
:1086B000B8D5012101FA03F39360B3E7D360F0BCAE
:1086C0007047012101FA03F3D360ABE7AF690F44B0
:1086D000D7600ED82E69711A5160AC62002185F8FE
:1086E0006010116841F00101DBB2116083F3118861
:1086F000AEE7711A5160AE62F0E700BF70B4037C60
:1087000001681F2B26D9A3F1200520224C68AA401E
:10871000224214BF01220022D2B142691B481C4CE4
:1087200002EB420200EB4212257854682068CDB972
:10873000E56856892C6824F001042C6082891F2B7F
:1087400022EA060282811AD8202202FA03F38B6001
:1087500070BC704720220C689A40224214BF01224C
:108760000022D9E7A469226822F0010222608289EE
:1087700022F480721204120C1F2B8281E4D9A3F11F
:10878000200220239340CB6070BC704758CB002060
:108790002011001070B59D4C2368002B40F005811E
:1087A0009B4B1A78002A68D09A4B19789A4B00296B
:1087B00064D11868B3F82C5141628489012A44EAD3
:1087C00005048481A3F82C1157D0D3F83001B3F8F5
:1087D0005C5241628489022A44EA05048481A3F838
:1087E0005C124AD0D3F86002B3F88C53416284899A
:1087F000032A44EA05048481A3F88C133DD0D3F8FE
:108800009003B3F8BC5441628489042A44EA050405
:108810008481A3F8BC1430D0D3F8C004B3F8EC556D
:1088200041628489052A44EA05048481A3F8EC1591
:1088300023D0D3F8F005B3F81C5741628489062A87
:1088400044EA05048481A3F81C1716D0D3F8200746
:10885000B3F84C5841628489072A44EA05048481AC
:10886000A3F84C1809D0D3F85028B3F87C495162CA
:10887000908920439081A3F87C1970BD5C681989A8
:1088800061602568186845F0010540F20D312560EA
:10889000A0F848108489012A44F480748481ECD0C3
:1088A000D3F83441B3F83851D3F830016560256806
:1088B00045F001052560A0F848108489022A44F497
:1088C00080748481D9D0D3F86442B3F86852D3F865
:1088D00060026560256845F001052560A0F8481034
:1088E0008489032A44F480748481C6D0D3F89443E5
:1088F000B3F89853D3F890036560256845F00105F7
:108900002560A0F848108489042A44F48074848186
:10891000B3D0D3F8C444B3F8C854D3F8C0046560E6
:10892000256845F001052560A0F848108489052ACE
:1089300044F480748481A0D0D3F8F445B3F8F8559A
:10894000D3F8F0056560256845F001052560A0F8BD
:1089500048108489062A44F4807484818DD0D3F829
:108960002447B3F82857D3F820076560256845F0F9
:1089700001052560A0F848108489072A44F4807412
:1089800084813FF47AAFD3F85428B3F85808D3F869
:1089900050385060106840F001001060A3F8481093
:1089A0009A8942F480729A8170BD054608F0D2FE21
:1089B000217AA9B16DB1194A002316890133002E1D
:1089C00018BF0021AB4202F16002F6D100293FF44A
:1089D000E7AE00F51C501030002320602372DFE664
:1089E0002368C31A002BFFF648AF637A3BB1013B03
:1089F000DBB263722BB100F57A702060D0E62360A1
:108A0000CEE6636803442360CAE600BF2855002011
:108A100058CE0020201100105CCE002058CB002042
:108A200010B5027C01681F2A4FF020030ED94C6854
:108A3000203A93401C4208D00B4A4068002414702E
:108A4000026822F001020260CB6010BD0C68934006
:108A50001C42FAD0044A406800241470026822F0D4
:108A6000010202608B60F0E74082002010B5027CBA
:108A700001681F2A4FF020030ED94C68203A93401A
:108A80001C4208D00B4A406800241470026822F08F
:108A900001020260CB6010BD0C6893401C42FAD00A
:108AA000044A406800241470026822F00102026047
:108AB0008B60F0E79D69002038B51D4B1B7804469C
:108AC00000F1250593B104221A49203043F0D6FE67
:108AD00028461422184943F0D1FE012384F83A3085
:108AE000164B1B7873B984F83B3038BD28461422E6
:108AF000134943F0C3FE012384F83A300F4B1B782F
:108B0000002BF0D00F4B186859689A68DD68E56053
:108B100020606160A260DD69186959699A69A26183
:108B20000123E5612061616184F83B3038BD00BFFD
:108B300081F8002082F8002087F8002060F80020EB
:108B40005C29050861F80020014B186809F004B998
:108B50009454002010B500210446012008F06EFC5A
:108B6000207010BD38B500240472451EE1B2022009
:108B700008F064FC0134082C05F8010FF6D138BD6B
:108B800038B52C22002143F03BFE0346642140F21D
:108B9000DC5240F2022019745A821321202240F242
:108BA0001A4540F26C74188399760E2002211A77C8
:108BB00001229D82DC8240F2753540F6430483F841
:108BC000220083F82A109A7383F82920DD831C84FD
:108BD00019460248BDE838401FF0E4BE6829050880
:108BE0002DE9F84FDDE90A64894617460021202265
:108BF0009846054643F004FE5EB1D6E9003271891D
:108C0000EB81C3F30F432B82C2F30F43EA822B8322
:108C10006982484642F052FE17F0100B10D1431EF5
:108C200070B119F803202E2A18BF09EB030104D1F3
:108C30004AE011F8016D2E2E3ED013F1FF33F8D229
:108C400008280246CA46A8BF08224FF0000B4FF082
:108C500020336B602B60C5F807304946284605F184
:108C6000080643F067FD5A465146304643F062FD20
:108C70006B1EE81D13F8012FA2F1610119299CBF99
:108C8000203A1A708342F5D105F10B0116F8013B29
:108C9000A3F16102192A9CBF203B06F8013CB142B6
:108CA000F4D11823C8F30F42EF722B73A5F81A8082
:108CB000AA82EC61BDE8F88FC01A00F1FF3BBBF15E
:108CC000030FA8BF4FF0030B082B03F1010AA8BF45
:108CD0000823CA441A46BAE72DE9F04F002087B0AE
:108CE0000C461D46012192460BF02EFF002D63D04D
:108CF00005EB0A03DFF8D094DFF8D0B403935546B0
:108D00001CE0002D00F0C581D9F81430AB4264D0CE
:108D1000D9F81030AB4200F09780D9E90631AB4268
:108D200052D8A94200F26F81691A204633F0A2F9A5
:108D3000039B01359D4204F500743DD0D9F82060B5
:108D4000AE42DED8D9F83080AE1B4FEAD60AD8F84A
:108D500030300AF1020A9A4506F0070603D3D8F824
:108D600038309A4509D94146504633F051F980468A
:108D7000002800F04D81C9F8300098F80430002B2D
:108D800040F0E280D8F82870002F00F0DF81D8F89A
:108D90003030D8F80C20AAEB030A06EBCA0A434687
:108DA000204602EB4A224FF40071B847039B01357D
:108DB0009D4204F50074C1D1002108460BF0C4FEA9
:108DC000002007B0BDE8F08FA942ADD94FF4007282
:108DD0000021204643F014FDAAE7522261204123DE
:108DE000002622706270A070722284F8E70184F875
:108DF000E631D9F82800E3704FF0FF33314684F8AC
:108E0000E42184F8E521C4F8E8014FF4F07284F815
:108E1000EC3184F8ED3184F8EE3184F8EF31201D27
:108E200043F0EEFC55216FF05502C4F8F061C4F830
:108E3000F461C4F8F86184F8FC6184F8FD6184F899
:108E4000FE1184F8FF2173E74FF4007200212046E1
:108E500043F0D6FCD44BD54F03CBEB230222237037
:108E60004FF0080C9026F8234FF0580EC4F803007A
:108E7000227484F80DC0C4F8071084F801E0A670CD
:108E80006375D9F81010D9F80830D9F81C6022732E
:108E9000591A21624FF0FF3100233F20A1763E2175
:108EA000A273E372E3736374A374E3742375A3750D
:108EB000E3756376E3766377A377E37720762177AC
:108EC00084F82C2007CFD9F8187084F82830F61BC6
:108ED00084F8293084F82A3084F82B3084F82D3037
:108EE00084F82E3084F82F3084F8313084F8323012
:108EF00084F8333080236662C4F8470004F14706E3
:108F000084F8403029209423A94F84F846C084F87F
:108F1000420084F843300E200D234FF0010C84F8FA
:108F2000440084F8453084F830C0716003CF334684
:108F30005527AA269A60C4F85200C4F8561084F83F
:108F4000FE7184F8FF61F3E64FF4007200212046C1
:108F500043F056FCD8F84030002E61D104F12007D0
:108F6000002B77D0D8F8303092491122CDE9006635
:108F70002046FFF735FED8F840301A6C04F1400A5D
:108F8000002A79D01B6B8C49CDE900663846112246
:108F9000FFF726FED8F84460002E3FF4C9AE4FF428
:108FA000E078CDE904450CE00024CDE900C4FFF7EA
:108FB00017FEB66CBA46A8F120080EB3B8F11F0F21
:108FC0001ED93468356B96F804E011222B462146F1
:108FD00050460AF1200706F11C0CBEF1000FE3D148
:108FE00072793369019342F021022B46CDF800C01B
:108FF000FFF7F6FDB66CBA46A8F12008002EDDD1C9
:10900000DDE9044594E6E91A204633F033F88FE6AB
:10901000231F04F5FE7243F804BF9A42FBD187E692
:10902000002BD8F844200CBF01230223C3EB061306
:10903000002A3FF47DAE966C013B002E3FF478AEE3
:10904000013BB66CF9D1002E3FF472AEA2464FF44C
:109050000078A6E7CDE900663346D9F80C1008225F
:109060002046FFF7BDFDD8F84460002E3FF460AE07
:10907000BA464FF4F07894E7CDE9006633463846B7
:1090800011224D49FFF7ACFDD8F84460002E86D17F
:109090004EE64FF400722946204643F0B1FB802291
:1090A0000C2384F8BE2184F8C231D9F81000434B58
:1090B000D9F8086084F8B85183FB0032C117C1EBBE
:1090C0002232B2F5806F84F8B95184F8BA5184F82D
:1090D000BB5184F8BC5184F8BD51C4F8C601C4F832
:1090E000CA6142DBFF2384F8BF3184F8C13184F8C0
:1090F000C031324B711E83FB0132CE17C6EB2232D8
:10910000B2F5806F29DA2E4B84F8C52183FB010369
:109110000B442C48C6EB6313C3EB831680FB037030
:10912000891B1844DE17921022F03F020131C6EB72
:10913000E0100A43034484F8C42184F8C331552263
:10914000AA2384F8FE2184F8FF31F1E539464FF473
:109150000072204643F054FBEAE5FF2384F8C33154
:1091600084F8C53184F8C431E9E7154B84F8C1218E
:1091700083FB00730344134FC1EB631387FB031797
:10918000C3EB831C9110A0EB0C02F818DF1721F041
:109190003F010132C7EBE0100A43034484F8C021C9
:1091A00084F8BF31A5E700BF7C2905088829050898
:1091B0009829050874290508782905089755454117
:1091C000832008828180808058BA0020DEADBEEF07
:1091D00008B52DF055FF80F00100404240B208BDB7
:1091E00070B50C4601211E46084615460BF0ACFC36
:1091F000AEB104EB462601E02DF042FF00222146ED
:10920000284632F099FD0028F6D12DF039FF0028CC
:10921000FBD004F50074B44205F10105EED1002144
:1092200001200BF091FC002070BD00BF70B50C4612
:1092300001211E46084615460BF086FC96B104EB4C
:10924000462600222146284632F00EFE0028F8D09D
:109250002DF016FF0028FBD004F50074B44205F190
:109260000105EED1002101200BF06EFC002070BD45
:10927000002108B508460BF067FC32F031FE2DF0F6
:10928000FFFE0028FBD0012100200BF05DFC002038
:1092900008BD00BF10B5044C04480A4621462EF014
:1092A00077F9204610BD00BFF0270020A42905084B
:1092B00010B5044C04480A4621462EF069F92046B0
:1092C00010BD00BFF0270020B429050810B5044CDC
:1092D00004480A4621462EF05BF9204610BD00BF27
:1092E000F0270020C02905080A4608B5054920B125
:1092F00005482EF04DF9034808BD04482EF048F902
:10930000004808BDF0270020EC290508D4290508ED
:10931000F0B5876983B0064617B13B68BA885A83AF
:109320007069DFF8A8E08389C3244FF47A734FF0A3
:10933000060C6D464FF6FF710EF1010E03E0013B86
:109340009BB28B4220D002899207F8D5A3B28381C9
:109350004FF47A7302E0A3B28B4215D00289D20790
:1093600003F1FF34F7D5828992B20DB12A7001352D
:10937000BCF1000F0BD00CF1FF3CFF24BEF1000F3D
:10938000E1D09EF80040D7E70CF090FCB76917B128
:109390003B68BA881A839DF805009DF801509DF836
:1093A00002109DF803409DF804209DF8063041EA24
:1093B000052143EA002342EA04220120A6F85010C6
:1093C000A6F85220A6F8543003B0F0BD70E00408AF
:1093D000F8B504460D468E180027B542206900D125
:1093E000F8BDE368591CE160234415F8012B1A729B
:1093F0000429F2D118B9A16820460DF0D5F8C4E9C6
:109400000370EAE730B402681146531C036011F898
:10941000024B0160D31C517803609378151D0560E1
:109420001B0443EA0123D078234343EA006030BCA5
:10943000704700BF0368591C1A46016012F8021BEE
:109440000260587841EA0020704700BF03685A1C48
:1094500002601878704700BF70B5044608460E4693
:1094600042F02CFA314605460246206843F062F984
:1094700020682844206070BD38B504460068154651
:1094800043F058F922682A44226038BD036810B4BA
:109490000A0E5C1C04601A7003680A0C5C1C0460F1
:1094A0001A7003680A0A5C1C04601A7003685A1C6C
:1094B000026019705DF8044B704700BF036810B478
:1094C0000A0A5C1C04601A7003685A1C0260197056
:1094D0005DF8044B704700BF03685A1C026010B46B
:1094E000197003680A0A5C1C04601A7003680A0C8D
:1094F0005C1C04601A700368090E5A1C0260197023
:109500005DF8044B704700BF03685A1C0260197075
:109510000368090A5A1C02601970704707EE901A16
:10952000F8EE677A9FED837A27EE800A20EE070A2D
:10953000FDEEC07A17EE903A2033402B00F2818086
:10954000DFED7D7AB4EEE70AF1EE10FA40F3E68043
:10955000B0EE407A9FED796ADFED796A01E0B0EE16
:10956000677AB4EEE67AF1EE10FA77EE467AF6DC38
:109570009FED747AF4EEC77AF1EE10FA40F1D180E3
:109580009FED6E6ADFED706A01E0F0EE477AF4EE6F
:10959000E67AF1EE10FA37EE867AF6D4DFED6B7AE2
:1095A000B4EEE77AF1EE10FA40F3A780DFED627ACD
:1095B00037EEC77A27EE076ADFED655ADFED657A89
:1095C000DFED656A9FED655AE6EE257A67EE065A8D
:1095D000E6EE276AF7EE007AA5EEA67AF0EE675A75
:1095E000E7EE055AE7EE457A87EEA55ADFED577AA2
:1095F00030EE277AFDEEC76A16EE903A2033402B04
:1096000024D99FED577AF6EE006AB7EE006AF7EEBE
:10961000004AC4EEA57A0023836143610362C361FB
:1096200080ED045A67EEA66A27EE866A27EE877AEF
:10963000C0ED006AC0ED026A80ED016A80ED037A38
:109640007047B7EE005AF0EE455ACFE7B4EEE70A9E
:10965000F1EE10FA6BDD9FED396ADFED396A01E05A
:10966000B0EE677AB4EEE67AF1EE10FA77EE467A6B
:10967000F6DC9FED347AF4EEC77AF1EE10FA53D5AA
:109680009FED2E6ADFED306A01E0F0EE477AF4EEEE
:10969000E67AF1EE10FA37EE867AF6D4DFED2B7A21
:1096A000B4EEE77AF1EE10FA33DCDFED2E7AB4EEA9
:1096B000E77AF1EE10FA44BFDFED227A37EEC77A8F
:1096C00027EE076ADFED224ADFED226ADFED227A1C
:1096D000E6EE246A67EE064AE6EE267AB7EE006A00
:1096E000A4EEA77AF6EE006A36EE476AF8EE007A44
:1096F00027EE277A66EE266A89E7DFED1A7AB4EE5E
:10970000E77AF1EE10FA44BFDFED0E7A37EEC77A52
:1097100050E7DFED097A37EEC77AD1E7F0EE407A0D
:1097200026E7B0EE677A39E7B0EE677AB6E7F0EE93
:10973000477A9EE727D4D236DB0F4940DB0FC9407A
:10974000E4CB1641DB0F49C0E4CB16C1DB0FC93FA8
:1097500092E741B99730083C15A82ABEF304353F7B
:1097600000000000DB0FC9BFDFED2E7AB4EEE70A80
:10977000F1EE10FA4ADDDFED2C6A9FED2C7A01E064
:10978000B0EE670AB4EEC70AF1EE10FA70EE667A30
:10979000F6DC9FED277AF4EEC77AF1EE10FA3ED5AB
:1097A000DFED216A9FED237A01E0F0EE407AF4EEDE
:1097B000C77AF1EE10FA37EEA60AF6D4DFED1E7A7C
:1097C000B4EEE70AF1EE10FA14DDDFED167A37EEAB
:1097D000C00A60EE006A9FED196A9FED197ADFED0D
:1097E000197AA6EE867A20EE266AE6EE877AA6EE4B
:1097F000270A7047DFED147AB4EEE70AF1EE10FAAB
:1098000044BFDFED0B7A37EEC00AE2E79FED087A3E
:10981000F0EE407AF4EEC77AF1EE10FAC0D4B0EE72
:10982000670ACBE7DB0F4940DB0FC940E4CB1641A9
:10983000DB0F49C0E4CB16C1DB0FC93F92E741B94A
:109840009730083C15A82ABEDB0FC9BFDFED317A7F
:1098500030EE277AFDEEC76A16EE903A2033402BA1
:1098600002D99FED2D0A7047B4EEE70AF1EE10FA27
:109870004DDD9FED2A6ADFED2A6A01E0B0EE677ADE
:10988000B4EEE67AF1EE10FA77EE467AF6DC9FED6A
:10989000257AF4EEC77AF1EE10FA35D5DFED1F6ABE
:1098A0009FED217A01E0F0EE407AF4EEC77AF1EE16
:1098B00010FA37EEA60AF6D4DFED167AB4EEE70A10
:1098C000F1EE10FA1BDCDFED197AB4EEE70AF1EEE7
:1098D00010FA44BFDFED137A37EEC00A60EE006A7B
:1098E0009FED136A9FED137ADFED137AA6EE867A69
:1098F00020EE266AE6EE877AA6EE270A7047DFEDAD
:109900000F7A37EEC00AE9E7B0EE670AD4E7F0EE67
:10991000477ABCE7DB0FC93F00000000DB0FC940FE
:10992000E4CB1641DB0F49C0E4CB16C1DB0FC9BF46
:1099300092E741B99730083C15A82ABEDB0F494091
:109940002DE90048FEF770FC054A064B1268B0EBA3
:10995000020B61F1000CC3E900BC0120BDE80088E6
:10996000A0B30020886A00200F4B2DE93048D3E9CE
:10997000004554EA05020AD1034640F201120020D4
:109980001880988098715A801881BDE83088074BFC
:109990001A6814EB020B45F1000C5A466346FEF7B9
:1099A0008BFB0120BDE83088886A0020A0B300202E
:1099B00002B370B48E1803E0121B14D1B14215D05B
:1099C00010F8012BA2F14103192B11F8013BA3F16F
:1099D000410598BF2032192D03F12004ECD9D21A89
:1099E00001D1002BEAD1104670BC7047002210460E
:1099F00070BC70471046704770B5044608460D4667
:109A000041F05CFF064602E014F8013F43B13246E4
:109A100029462046FFF7CCFF0028F5D1204670BD2F
:109A20001C46204670BD00BF4FF0FF32FFF7C0BF9D
:109A3000A0F16103192B98BF20387047A0F14103B2
:109A4000192B98BF20307047202805D009380428EA
:109A50008CBF002001207047012070472DE9F041A4
:109A60001F46064603461C782046FFF7EDFF1D46BD
:109A700001330028F7D12B2C51D02D2C24D0102AC3
:109A8000804628D04FF0FF33B3FBF2F302FB03FC18
:109A90006FEA0C0C5FFA8CFC013500200BE0303CC7
:109AA000E4B2944225DA98422E461DD81AD002FB21
:109AB000004015F8014B392CF1D944F02004602CFA
:109AC00017D9573CE4B2ECE74FF00108102A6C7844
:109AD00005F10105D6D1302C23D06FF070434FF043
:109AE0000F0CD9E76445E2D907EA08084FF0FF30C8
:109AF000DFE701B10E60B8F1000F08D027B1B0F177
:109B0000004F28BF4FF000404042BDE8F081002FD9
:109B1000FBD06FF00043984228BF1846F5E7804617
:109B2000D4E76C782046FFF789FF782805F1010615
:109B300005D035466FF070434FF00F0CACE7AC78B2
:109B40006FF0704302354FF00F0CA5E701230A2296
:109B5000002183E7613819288CBF0020012070475D
:109B6000413819288CBF002001207047303809285F
:109B70008CBF002001207047A0F13003092B07D9CA
:109B800020F02000413819288CBF002001207047A8
:109B9000012070470378202B024600F10100F9D024
:109BA000092BF7D02D2B00F0A4802B2B03BF53786B
:109BB000B7EE000A0246B7EE000AA3F13001C8B2C0
:109BC00009289FED577A10D8F2EE046A07EE901A32
:109BD000F8EEE77A12F8013FE7EE267AA3F13001BA
:109BE000C8B20928B0EE677AF0D92E2B63D003F003
:109BF000DF03452B02D020EE070A704710B45178DE
:109C00002D294FD02B2979D0A1F13003092B02F156
:109C100001027AD80024002303EB830301EB430302
:109C200012F8011FA1F130000928A3F13003F3D984
:109C3000B3F59A7F1A4628BF4FF49A72072B6CD956
:109C4000DFED386A1346F7EE007A083B072B67EE24
:109C5000A67AFAD802F00702DAB1F2EE046A012A13
:109C600067EEA67A15D0022A67EEA67A11D0032AEB
:109C700067EEA67A0DD0042A67EEA67A09D0052AE7
:109C800067EEA67A05D067EEA67A062A18BF67EEB9
:109C9000A67A002C3BD087EE277A5DF8044B20EEA5
:109CA000070A70479178A1F13003092B02F10202F3
:109CB00030D80124AFE75378A3F13001C8B20928A6
:109CC00002F1010293D8F2EE046AF0EE665A07EE52
:109CD000901AF8EEE77A12F8013F87EEA66AA3F130
:109CE0003001C8B2092866EEA56A37EE067AEED9C9
:109CF0007DE75378BFEE000A02465EE79178A1F156
:109D00003003092B02F1020284D9F7EE007A27EE24
:109D1000277AC2E7F7EE007ABDE7F7EE007A9BE715
:109D20000000000020BCBE4CF8B5064615460846AB
:109D3000B6FBF2F434B905FB14640C4B1B5D00F860
:109D4000013BF8BDB4FBF2F75FB905FB1747074BC2
:109D500005FB1464DA5D00F8012B1B5D00F8013B84
:109D6000F8BD3846FFF7E0FFEFE700BF042A05081B
:109D7000B5EEC00ADFED677A674AF1EE10FACCBFA4
:109D800030EE270A30EE670ADFED647A20EE270A0C
:109D90002DE9F047FDEEC07A88B017EE904A84EACC
:109DA000E4760023A6EBE476CDE902330493A2FB2C
:109DB00006325FEAD208054641D105AF5848394618
:109DC000554BA3FB0623DB0803EB8303A6EB4303FE
:109DD000002CC35C0B704FF00002ACBF20232D237E
:109DE0004A7038468DF8083041F068FD0128394640
:109DF00039D0022842D0032805BF302302A802A888
:109E00008DF8093042F004FD02A841F057FD0338F7
:109E1000C4B2224602A9284642F030FD00232B5549
:109E2000284641F04BFD2E22431C02A92A5421440E
:109E3000E81842F009FD284608B0BDE8F087394B24
:109E4000A3FB06235B0922D105AF35483946324AC8
:109E5000A2FB0832D20802EB8202A8EB4202835C2A
:109E600001F8013BACE7302302A88DF809308DF8EA
:109E70000A308DF80B3042F0CBFCC5E7302302A846
:109E80008DF809308DF80A3042F0C2FCBCE7264A52
:109E9000A2FB06125FEA92190ED105AF204839469F
:109EA0001D4AA2FB03C2D20802EB8202A3EB4203CB
:109EB000C35C01F8013BCAE71C4AA2FB06125FEA39
:109EC000523A0ED105AF16483946134AA2FB09C2D1
:109ED000D20802EB8202A9EB4202825C01F8012B5C
:109EE000DEE71348B6FBF0F058B905AF39460A2053
:109EF000BAFBF0F200FB12A20948825C01F8012BC8
:109F0000E3E705AF39460A220193FFF70DFF019BF6
:109F10000146ECE76F12033ACDCCCCCC00007A447A
:109F2000042A05081F85EB51D34D62105917B7D18C
:109F3000A086010070B406688E4217D90139751EDB
:109F4000002311F8014F0822634013F0800F4FEAFD
:109F5000430318BF83F0D503013ADBB2F5D18D423C
:109F6000EFD1721C0260337070BC7047721C00230A
:109F70000260337070BC70470A44914215D010B42F
:109F80000139541E11F8012F0823504010F0800FA2
:109F90004FEA400018BF80F0D500013BC0B2F5D1B8
:109FA000A142EFD15DF8044B704770474840082349
:109FB00010F0800F4FEA400018BF80F0D500013B41
:109FC000C0B2F5D1704700BF0A44914215D030B4F9
:109FD0000139551E41F2210211F8014F082380EA90
:109FE000042004044CBF82EA40004000013B80B2E0
:109FF000F7D18D42F0D130BC7047704770B5022266
:10A000001349144C144E4FF6FF70FFF7DDFF228802
:10A010004AB1A518B54218D2052A16D92146FFF72C
:10A02000D3FF2C46F3E721460222FFF7CDFF0222A1
:10A03000A118FFF7C9FF094BE41A094B1C8041F630
:10A040000F53C31A5842584170BD0020FCE700BFAF
:10A05000004000080240000800800008FA3F0008A5
:10A0600066F900202DE9F043002489B006460D462C
:10A070001F46A04605E025290CD030460134A847EC
:10A08000039A531C039311780029F4D1204609B098
:10A09000BDE8F083931CCDE903385078302842D0D6
:10A0A000A0F13003DBB2092B4FF0000945D96C2831
:10A0B0002AD0642873D019D9732858D063D9752849
:10A0C00040F0828007F1040C386805AB00220A21B9
:10A0D0006746FEF713F905AB049A009329464B46F1
:10A0E0003046FEF75DF9039A0444CAE725283CD0C0
:10A0F00051D958286BD06328C2D139783046A84747
:10A1000004370134039ABCE7039B5A1C03921B7863
:10A11000642B52D016D8252B27D064D9582B18D0B1
:10A12000632BEAD0ADE7D31C03939078A0F1300302
:10A13000DBB2092B4FF00109B9D804AA03A931F009
:10A14000EBFFB4E7732B12D051D9752B2DD0782BA0
:10A1500097D1A3F15802B2FA82F23868520905ABDE
:10A1600010210437FEF7CAF8B5E7252185E73B68DB
:10A17000049A0093294600233046FEF711F904376C
:10A180000444039A7DE76E287FF47AAF039A3B6814
:10A1900004371C6075E700283FF478AF70E7386833
:10A1A00005A9FEF775F8043795E7386805AB002276
:10A1B0000A21FEF7A3F804378DE73B1D386805A98F
:10A1C0001F46FEF765F886E778287FF459AFA0F1BF
:10A1D0005802B2FA82F23868520905AB1021FEF734
:10A1E0008DF8043777E7002B3FF450AF49E76E2B2B
:10A1F000CDD046E70EB400B584B005AB019053F85E
:10A20000042B0649039301A8FFF72CFF019B0022B2
:10A210001A7004B05DF804EB03B070479583000832
:10A220002DE9F04707468CB01E469246002A5CD1C5
:10A23000154614460A88B2F5FA6F36D38B78581E45
:10A240000B2832D891F803C00CF1FF301E282CD80F
:10A2500091F804E0BEF1170F27D891F80590B9F1F5
:10A260003B0F22D888793B281FD8B1F80880B8F571
:10A270007A7F1AD24FF001085EBB09890491002C45
:10A28000B4BF2D212B21002CB8BF6442CDE9029030
:10A29000CDE905140795CDE900CE38462A49FFF7E8
:10A2A000A9FF40460CB0BDE8F08700232749ADF870
:10A2B00028304FF0010C18468DF82A30ADF82C30BC
:10A2C00099469E461A4698460991634609A9002E6A
:10A2D000D3D0CDE90290CDE900CE38461C49FFF736
:10A2E00089FF40460CB0BDE8F0871A4C84FB02346D
:10A2F000A318D417C4EB6314C4EB0415A2EB8505B3
:10A300002DB2002D0846B8BF6D42FDF78DFF4FF40A
:10A310007A7200238046894641F0BCFF3C230AFB49
:10A32000030A4FF47A7200234046494641F0B2FFD7
:10A330004FF47A7192B20023C1FB0A2309A8FDF7FA
:10A34000BBFE24B209A975E74C2A050800000101EB
:10A350002C2A05088988888810B44C09012250F8F5
:10A36000243001F01F0102FA01F10B4340F82430C0
:10A370005DF8044B704700BF4B0901F01F0150F816
:10A380002320012303FA01F1114214BF18460020D3
:10A39000704700BFF0EEC07AB0EEE07AB4EEE77A34
:10A3A000F1EE10FAB4BFB0EE676AB0EE476AB5EEF0
:10A3B000406AF1EE10FA46D0B4EEE77AF1EE10FA08
:10A3C0008CBFF0EE675AF0EE475AC5EE866A9FEDF5
:10A3D0001F3A9FED1F6A9FED1F4A9FED1F5ADFED49
:10A3E0001F3ADFED1F4ADFED1F5AA6EEC36AE6EE05
:10A3F000A34AA6EE864AB7EE006AA6EE845AA6EEF7
:10A40000A46AE6EE855AC5EE866AB4EEE77AF1EE06
:10A4100010FA48BFDFED147AF5EEC00A48BF77EEB8
:10A42000E66AF1EE10FA48BFDFED107AB5EEC00A29
:10A4300048BF77EEE66AF1EE10FA48BFF1EE666AC1
:10A44000B0EE660A7047DFED076ADEE739094E3D78
:10A45000E3B59E3E88FA163E45FE7F3F99FB243FBA
:10A4600069A2163EA7DFA834DB0FC93FDB0F4940C6
:10A4700070B544880546C4F30B04224608460E46D0
:10A48000002142F0BDF92B69094A934202D3094ADF
:10A49000934205D35BB121463046BDE87040184772
:10A4A000224630461946BDE8704042F043B970BDBF
:10A4B000F40600083E08000838B5064C064DAC42CC
:10A4C00006D2616820461434FFF7D2FFAC42F8D3BD
:10A4D00038BD00BF90010008F4060008084B094988
:10A4E0008B4203D309E014338B4206D21A88C2F39D
:10A4F0000B029042F7D11846704700231846704768
:10A5000090010008F406000808B5064B186838B139
:10A510000BF068FA044B9B7813B180F00100C0B2D5
:10A5200008BD00BF08570020F48A002008B531F0AC
:10A5300099FB2BF091F91B2006F03CFA18B123226D
:10A5400000238271C3712FF0FFFD18B12322002375
:10A550008271C3710C4B9B78012B10D0022B0CD154
:10A560000A4B0B4A1A600B4901F12C0031F070F9CB
:10A57000094B002083F8230008BD012008BD034BD0
:10A58000064A1A60EFE700BFE87F0020E894002049
:10A59000340000207400002000ED00E05400002092
:10A5A00008B5054B4FF0FF321A60012007F082F921
:10A5B00072B642F091F800BFF0FF012008B5FFF736
:10A5C000A3FF0028FBD1142007F074F900BFFFF7A8
:10A5D0009BFF0028FAD0FFF7E3FF00BF08B5054B4B
:10A5E0001B6803B19847044B044A1A6072B642F0E4
:10A5F00073F800BF38620020F0FF01201010DDDD8D
:10A60000074A084B10781B78074A834296BFC31A43
:10A61000C3F180030020126818441044704700BF43
:10A6200018630020946200206C600020064A074BEB
:10A6300010781B7883428ABFC3F18003C01AC01808
:10A64000C0F17F00704700BF1863002094620020B3
:10A65000064808B54368DB68984705480549064A37
:10A66000002303700B70136008BD00BFC0B300204F
:10A6700018630020946200206C6000200348436847
:10A6800013B19B6A03B1184701487047C0B300205B
:10A6900078E004082DE9F04784B0FFF7EFFF856804
:10A6A000ED0A1BD0DFF840800026C14604AFD8F881
:10A6B0000430AC196410D3F824A0E10210236A46D8
:10A6C0004846D0470F2809DD6B4653F8042B01326A
:10A6D00008D19F42F9D12546B542E8DCE80204B032
:10A6E000BDE8F087661CF7E7C0B300202DE9F04F06
:10A6F00087B04FEA820A0491CDE9013000220B466F
:10A70000514453F8040B8B420244FAD1019B059249
:10A710002BB9424843681B689847002863D0FFF76D
:10A72000ADFF43880393059B002B4AD03C4B029A14
:10A730003A4E1B68DDF814B092440399B3FBF1F96B
:10A7400001FB193303EB0B028A428CBFA1EB030917
:10A75000D946FFF793FF324B196883688B4248D97B
:10A7600073682E481B6998477168029C049D4F4688
:10A77000AC4655F8043B30461A468BB1D4F800E09D
:10A78000D1F81480BB4271461FD2C04755F8042C43
:10A7900023687168134423600023BF1A45F8043C02
:10A7A00004345445E4D18B69304698471C4A1368F9
:10A7B0004B441360019AABEB090B3AB3BBF1000FAA
:10A7C000BBD1059807B0BDE8F08F4346E0463A4656
:10A7D00098472268D8F8003071683A44DF1B22603D
:10A7E000C8F80070DFE7019B0593059807B0BDE846
:10A7F000F08F05980B490C4AA0EB0B0005900598CB
:10A8000000230B70137007B0BDE8F08F059BA3EB1E
:10A810000B030593059807B0BDE8F08FC0B3002087
:10A820006C600020186300209462002070B5104D09
:10A83000104E2B7831788B4284B016D00E4A03929A
:10A840001A4402928CBF0C46CA1A04A98CBFC3F1E9
:10A8500080020024012341F8102D02A80222019455
:10A86000FFF744FF002333702B7004B070BD00BFAE
:10A8700094620020186300209862002010B5FFF752
:10A88000FDFE836803B910BDFFF704FF0446FFF720
:10A89000CDFF014B1C6010BD6C6000202DE9F04124
:10A8A000054614460F46FFF7E9FE83682A199A42C7
:10A8B00003D9FFF7E3FE8468641BFFF7B7FF054881
:10A8C00046682346746A3A462946A446BDE8F041E4
:10A8D000604700BFC0B3002013460A460146184631
:10A8E000DCE700BF2DE9F04F012189B000200AF01C
:10A8F0002BF930F077FEFFF7C1FF41F62C720021F3
:10A90000BE48BF4D41F07CFF0024BC4B4C222919AE
:10A910001819144441F00EFFE42CF6D1FFF7BAFEEB
:10A920008246002800F0B8800026B64FDFF8F0B26B
:10A9300035463446122203A92846FFF7AFFF1222FC
:10A94000594603A841F088FF28BBAF4BAF49DFF859
:10A95000C48206EB860206EB420203EB0209AC421C
:10A96000A5EB04034846019315D001363246FFF7A4
:10A9700041FC019BC7F80090C7E90433A44BFC607D
:10A980000122642EC7E90733C7E90938BA6000F02D
:10A9900085804C372C4605F50065AA45CAD8642E3B
:10A9A000A04600F00A81A54272D006EB8602964CC2
:10A9B000984B9649019306EB420214442046721CC0
:10A9C000FFF718FC924A019B3C600121C7E902187D
:10A9D000C7E90722A5EB0805C7E904557A62351DCA
:10A9E000BB6205364FF04C080193844B884FDFF86B
:10A9F000349208FB05F55C1942460021204641F0DF
:10AA0000FFFE42460021204641F0FAFE7B4B012228
:10AA100043F80590019BA362A260C4E907776762CF
:10AA2000FFF738FEC4E904004C27744B784DDFF87B
:10AA3000F88107FB06F69C193A460021204641F0B2
:10AA4000DFFE3A460021204641F0DAFE6B49022241
:10AA5000012341F806800F46C4E90755656262711B
:10AA6000A360FFF717FEBD68C0F100604000C4E9B5
:10AA700004000DB93A79AAB94FF47A7006F01AFFBA
:10AA8000002108460AF060F8002009B0BDE8F08F08
:10AA9000F51C002E40F0E6800326C5E743466826F5
