:020000040800F2
:10000000F0FF001001B605085F2404083D51010807
:10001000A1B60508A1B60508A1B6050800000000B4
:100020000000000000000000000000005D24040843
:100030005B2404080000000059240408F55101085D
:10004000A1B60508A1B60508A1B60508A1B6050820
:10005000A1B60508A1B6050839750208657602083B
:1000600029760208ED750208B1750208899903081E
:100070007999030869990308599903084599030870
:10008000319903081D990308A1B60508A1B6050812
:10009000A1B60508A1B60508A1B605087575020840
:1000A00079FE000815040108A9FD0008E50401080F
:1000B0005503010895020108C9010108A1B6050808
:1000C000A1B60508A1B60508A1B60508A1B60508A0
:1000D000A1B60508096D0208A1B60508F953010883
:1000E000FD740208A1B60508456A0408D9FC000899
:1000F00049FF000809FC00082900010809990308C4
:10010000A1B60508A1B60508F9000108A1B60508C1
:1001100041530108A1B60508BDAD0108A9AD01080C
:10012000F5980308E1980308CD980308B9980308E7
:10013000A5980308A1B60508A1B60508A1B605084B
:10014000A1B60508A1B60508A1B6050871580408AE
:10015000919803087D98030869980308895201085B
:10016000A1B60508A1B60508A1B60508A1B60508FF
:10017000A1B60508A1B60508A1B60508A1B60508EF
:08018000A1B60508A1B60508AF
:08018800A8B105000100000010
:100190001A0201003C000000E4190020501E00205B
:1001A0000000000081EC01082700010004000000AD
:1001B000CC1C00208C1E002000000000C808000895
:1001C000381001000100000034190020901E0020AA
:1001D00000000000CC080008F62101000C0000001F
:1001E000BC240020F024002000000000D0080008FB
:1001F000020001000C000000B0240020FC240020BC
:1002000000000000000000001D02010002000000CC
:10021000A42400200825002000000000DC080008BD
:100220000A020100140000008C2100200C2B002089
:1002300000000000596801080300010001000000EF
:100240007C210020202B0020000000000000000086
:10025000031201003D00000060240020242B002038
:1002600000000000DE08000825201E002C01000010
:10027000C8210020642B00200000000000000000C6
:100280001010010002000000E4200020902C00204B
:10029000000000001C0900081F02080010000000F8
:1002A000A0360020903600200000000089E70108F9
:1002B0002802040004000000685600206C5600204C
:1002C0000000000045E801082702040004000000C7
:1002D00064560020705600200000000039E8010834
:1002E0002C000400100000008860002078600020CE
:1002F00000000000D5CD02082B00120024000000F1
:10030000BC6000209860002000000000A5CD02081D
:1003100029201400780000003C5F0020E0600020ED
:10032000000000000000000028100100160000007E
:10033000706100205861002000000000B5D0020864
:100340001C0202001C000000A85B00208861002045
:1003500000000000F5EA010814000100030000009D
:100360008C5E0020A4610020000000001E0900082F
:100370001002010001000000A4750020A0750020FB
:100380000000000022090008012001000C0000000C
:10039000388A002034910020000000002409000861
:1003A0000C200600CC00000018890020409100209D
:1003B00000000000696601080A70010028000000C2
:1003C000D08800200C9200200000000091AE0208AE
:1003D0000ED00300920100003C87002034920020E0
:1003E00000000000650E0508010101000400000086
:1003F00088860020C8930020000000000000000054
:10040000000101000400000080860020CC93002041
:100410000000000030090008020101000300000094
:100420007C860020D093002000000000A566010813
:10043000220201001C0100005C8E0020D4930020E9
:100440000000000011ED010801020100050000009C
:1004500094860020F09400200000000059A40308B6
:100460000002010005000000508D0020F8940020DB
:1004700000000000000000001B020100100000004E
:10048000308D0020009500200000000049E80108A0
:100490001B1001000C0000002C770020109500209C
:1004A000000000004DB3030821020100F00000002D
:1004B000B07500201C9500200000000029B2030840
:1004C0000502010004000000A8A10020BCA100203A
:1004D0000000000034090008030101000A000000C8
:1004E000649F0020C0A10020000000002D19040816
:1004F0000E02010002000000B09F0020CCA10020ED
:100500000000000038090008130201000400000088
:1005100030960020D0A10020000000003A09000819
:10052000231201001000000050AB0020DCAB0020C3
:10053000000000004009000805100100060000004E
:1005400048AB0020ECAB0020000000005009000880
:10055000371001002E00000088AB0020F4AB002013
:1005600000000000560900081610010006000000F7
:1005700000A5002024AC0020000000008409000831
:100580002F10010022000000B8AB00202CAC00208E
:10059000000000008A0900081E000100070000009A
:1005A00020A6002050AC002000000000AC0900088C
:1005B000231001000E00000060A6002058AC0020AF
:1005C00000000000EDAE0208F5610100CC00000063
:1005D000E8A3002068AC00200000000045B103083B
:1005E0000B3001001A000000CCA3002060AD0020F9
:1005F00000000000B40900081F30010024000000C2
:10060000A4A300207CAD002000000000D009000859
:100610000D0001003400000094DA0020C0E3002047
:100620000000000021840008090201000100000010
:10063000FCD90020F4E3002000000000F4090008C9
:10064000040008008000000078D90020F8E30020B2
:100650000000000000000000130001000400000082
:1006600064D9002078E4002000000000F8090008A8
:10067000182001003000000014D900207CE4002084
:10068000000000005DEE0108061001001C000000E3
:10069000F8AD0020ACE4002000000000F5ED0108FA
:1006A000FB01010001000000D8D80020C8E40020B0
:1006B00000000000C9ED0108FC0101000900000074
:1006C000A4D70020CCE4002000000000D9ED0108F0
:1006D000F7010100060000009CD70020D8E40020AC
:1006E00000000000FC090008160215003F00000091
:1006F00014AE0020E0E400200000000059ED0108E5
:100700003400010010000000CCD6002020E50020BD
:1007100000000000950E050811020100080000000D
:10072000A4D6002030E5002000000000020A0008E6
:1007300012120100040000009CD6002038E50020C1
:10074000000000000A0A000812200100100000004A
:100750008CD600203CE50020000000000E0A0008B6
:10076000FD01010021000000B8D300204CE500206D
:1007700000000000C73E0208FF1101000600000053
:10078000D8CF002070E5002000000000ADE7010890
:10079000081203000F00000054D0002078E500206C
:1007A00000000000C9E70108F90101000400000091
:1007B000D4CF002088E5002000000000753F02082B
:1007C000FA01010003000000A0C900208CE5002010
:1007D000000000003DE901080202010003000000E2
:1007E000F0AD002090E500200000000000000000B7
:1007F0000C02010004000000ACAD002094E50020D4
:100800000000000021E80108110001000C000000B8
:1008100016BE002098E50020000000007185000849
:10082000FE0101001400000028B90020A4E500200A
:100830000000000059E70108190001000500000050
:10084000BC100120DC110120000000001E0A00087D
:100850001A0001000E00000044100120E4110120E4
:1008600000000000240A0008F82101000600000032
:100870000C0F0120F411012000000000320A0008D2
:10088000203201000A000000140F0120FC11012099
:1008900000000000450E0508150010007000000063
:1008A0001C0D0120081201200000000000000000C3
:1008B0002A000800600000001C11012078120120AD
:0808C000000000001D0E0508F8
:1008C80020030000000000000000000001000000FC
:1008D800020200000000000000000000000000000C
:1008E8000000000000000000000000000000000000
:1008F80000000000000000000000000000000000F0
:1009080000000000000000000000000000000000DF
:10091800000001000005030000000000E803640077
:10092800040A000114001E00FA0000000000000084
:100938000000000001350000000000000000000079
:10094800000000000000000020000201000020005C
:100958003200C800D00796001400320028004C046A
:1009680040060005500014000F0008006400010054
:10097800000005000A000000F4019600C409000008
:100988001900000000000000000000000000000046
:10099800000000000000000000000000000000004F
:1009A800000000000000010000000000AE014A0144
:1009B8005E012C0164010100000001000A019A0196
:1009C800001E0A00000000000000000000010000F6
:1009D8000005000001020300000000000000000004
:1009E800000000000000000000800700290000004F
:1009F8000800443024010000D80E1E000000010148
:100A08000101FFFFFFFF00000001000005434C52F9
:100A18003400000800020000280100007E05EA05F5
:100A2800B4053200E803D00700000401F401140003
:100A38000000000018190020080000000000000055
:100A480008190020080000000D4804082F140408A5
:100A5800A147040800000000111304087950040895
:100A6800E5460408554304080000000000000000A3
:100A7800D1120408991104088B110408DD410408F7
:100A8800F9410408C1410408A54104088B41040840
:100A9800C34704080D140408E746040800000000D2
:100AA800E912040857430408B9460408C342040875
:100AB8000000000000000000DD1204080100000032
:100AC800A00F0000B80B00000102FFFF01000000AA
:100AD8000000803F0000000000000000000000004F
:100AE800B9AB000800000000000000000000000092
:100AF800FFFFFFFFFF000000C8EC05081A03000015
:100B080000000000000000000000000000000000DD
:100B180000000000000000000403090412010002A4
:100B28000000004083042057000201020301000076
:100B3800A1F4010889F4010879F4010891E8010891
:100B480025F40108CDF3010881E8010848030020D5
:100B58008D1F020899E8010895E801088DE8010849
:100B6800D5EE010889E8010885E80108F0EE0508D6
:100B780015500408EF130408F94E0408000000009B
:100B88000000000091460408A14504080000000088
:100B98000000000000000000C512040831E9010847
:100BA80025E90108FDF4010819F50108DDE8010847
:100BB800E1F40108C5F401080068214C1F00000099
:100BC8001C0000001F0000001E0000001F000000A5
:100BD8001E0000001F0000001F0000001E00000093
:100BE8001F0000001E0000001F000000FF01FF00A2
:100BF800008002021F00000053544D2020202020B6
:100C080050726F647574202020202020202020201E
:100C1800302E3031FFFF0000FFFFFFFF3CAD06081C
:100C280000000802050303000000000044AD0608A8
:100C380001000802050403000000000068680608B7
:100C48000200FE010110030000000000F8830608FE
:100C58000300140200030000000000004CAD060869
:100C680004001F02020008000000000054AD06083E
:100C780005001F0202010800000000008C58002037
:100C8800E0580020D60101000001010100FF010128
:100C98000000040100000000000000021000000035
:100CA800070000000000000000000000010203042B
:100CB8000607080900000100E00101FF010000002B
:100CC800B5A703080000000084280608FFFFFFFFFF
:100CD800080000000000000000000000F83E0608C0
:100CE8000000000000000000A43E06080101FF000B
:100CF800FFFFFFFF2D202D2D202D2D2D2D202D2DFB
:100D08002D2D000000000000000000000000000081
:100D18000000002D202D2D202D2D2D2D202D2D2DA9
:100D280000000000000000000000000000000000BB
:100D3800000000000000000000000000343E06082B
:100D480001000000FA00000001000000010000009E
:100D5800348A00200000F40101000000328A0020DB
:100D68000000F40101000000308A00200000F401B6
:100D7800010000002E8A00200000F401010000009C
:100D88002C8A00200000F401010000002A8A0020BB
:100D98000000F40101000000288A00200000F4018E
:100DA80001000000B5AF030879AF0308E02A060880
:100DB800188A002005320100268A00206400F40108
:100DC80001000000248A00206400C409010000001A
:100DD800168A0020E803D00701000000148A0020CA
:100DE800E803D00701000000128A0020E803D007BA
:100DF80001000000108A00201E00B80B010000004E
:100E08001E8A002005000F0001000000208A002033
:100E180003000A00010000000E8A00201E00F401F1
:100E280001000000228A0020020000006C2B060846
:100E38000C8A002014006400010000001A8A0020B7
:100E48003200E803010000000A8A00200000C80000
:100E5800010000001789002000C801001689002041
:100E68000050010015890020005A01001389002054
:100E780002000000782B06087CB4060884B4060833
:100E8800E2A600200100C40900000000E0A600203E
:100E98000100C40900000000DEA600200100C4090A
:100EA80000000000DCA600200100C40900000000CA
:100EB800D8A600200100C40900000000DAA600201E
:100EC8000100C40900000000D6A600200100C409E2
:100ED80000000000D4A600200100C40900000000A2
:100EE800AB86002000C80100AA86002000C80100C7
:100EF800A88600200100C80001000000A686002086
:100F08003200307532000000A486002005820500FA
:100F1800A286002005002C0105000000A186002003
:100F2800055A05009E86002000FF0100A0860020CB
:100F380002000000D00500209C860020030000006D
:100F4800E44306089D86002000FF01009F860020DC
:100F580002000000D00500209B860020030000004E
:100F6800E443060809AF030899AE0308842B060872
:100F7800488A0020EE02CA0801000000468A0020C4
:100F880000C8010064000000458A002000C8010074
:100F980064000000448A002002000000902C06082B
:100FA8008E86002080C1803E050000008C860020CF
:100FB80080C1803E050000008686002080C1803EFA
:100FC800050000008486002080C1803E05000000E6
:100FD8007F86002000FF01007A8600206400F4016B
:100FE8000100000078860020040000009C2C060800
:100FF8007786002002000000B02C06082B8700200E
:101008000D000000BC2C06082887002000640100A1
:1010180026870020320010270A00000024870020BD
:101028000D000000BC2C0608238700200D000000DE
:10103800BC2C06082287002002000000F42C0608B9
:101048007DA7030800000000002D060854A1002019
:101058009CFF2C01000000000C900020E0150C17EC
:10106800000000005A8D002002000000382D0608FC
:10107800548A00200100FF7F01000000538A0020ED
:1010880002000000442D06082D8700200300000000
:10109800542D06082C87002003000000542D060854
:1010A800048900200000E8030100000002890020F4
:1010B8000000E80301000000008900200000E803A8
:1010C80001000000FE8800200000E8030100000085
:1010D800FC8800200000E80301000000FA880020D6
:1010E8000000E80301000000F98800200014010056
:1010F800F888002003000000642D060812890020EB
:1011080002000000742D0608108900200000F40178
:10111800010000000E8900200000F4010100000019
:101128000C8900200000F401010000000A89002059
:101138000000F40101000000088900200000A00F51
:1011480001000000068900200000A00F0100000037
:10115800F789002019640100F689002002000000C8
:10116800802D0608F4890020E803D0070A00000053
:10117800F2890020006401000A000000E7890020CD
:1011880000640100E689002000640100EE89002067
:10119800006401000A000000ED89002000640100DD
:1011A8000A000000EC890020006401000A00000029
:1011B800F1890020006401000A000000F089002085
:1011C800006401000A000000EF89002000640100AB
:1011D8000A000000EB89002001FF01000A0000005E
:1011E800EA89002001FF01000A000000E9890020C7
:1011F80001FF01000A000000368700200000F4010A
:1012080001000000348700200000A00F010000004A
:10121800328700200000A00F010000003087002066
:101228000000A00F010000002E8700200000A00F82
:10123800010000006D8D002000C801006C8D0020A9
:10124800006401006B8D0020006401006A8D00209D
:1012580000640100698D002000640100688D002091
:10126800FF080100678D00200164010005AE030836
:10127800C9AD03088C2D0608708D0020016401009B
:101288006F8D002001000000FC2D06086E8D0020E7
:1012980004000000042E0608668D0020006401008A
:1012A800648D00201400E80301000000628D002016
:1012B800E80330750A000000608D002000C80100B6
:1012C8005F8D002000C801005E8D002000C801006D
:1012D8005D8D0020003201005C8D0020006401005B
:1012E8000A0000007E8D00200000D00701000000E9
:1012F800798D002000C80100788D002000C8010009
:10130800778D002000C801007C8D00200000D007E8
:1013180001000000768D002000C80100758D0020B6
:1013280000C80100748D002000C801007A8D0020DB
:101338000000D00701000000738D002000C80100E4
:10134800728D002000C80100718D002000C80100C6
:10135800000000009DAB0308182E06081F87002018
:10136800005A0100208700203B000000B42E060828
:101378001E87002000C801001C870020E803D00752
:1013880001000000434C524143494E474634000097
:101398009A860020000301009986002000030100BE
:1013A800D1AA030895AA0308A42F060851AA03087E
:1013B80005AA0308303006080DAB030865D20308F8
:1013C800B030060890860020010301001DB0030814
:1013D800F1AF0308DC33060889A903083DA903080F
:1013E8004C340608B3AB030891F60308E834060842
:1013F8001DF803080000000090350608E9D6030828
:101408007DB003082C36060815AC03080000000060
:10141800AC360608EDAC030899AC0308103706088B
:1014280085AD030841AD0308AC370608B90E0408BA
:1014380041AE030838380608098A00200106010071
:101448005DAC030829AC030834390608FD0D04080F
:10145800C9D20308A4390608FD0E040881D303087D
:10146800D83A0608088A00200103010061AB030886
:1014780025AB0308AC3B060849B003080000000090
:101488001C3C0608D5A9030835D20308803C060889
:1014980000000000000000000C3D060871AE0308C3
:1014A800F9D303088C3D06087286002088136F174D
:1014B800010000007486002088136F1700000000E8
:1014C8003ADB0020000000000000000038DB0020AC
:1014D800000000000000000036DB002000000000D3
:1014E8000000000034DB00200000000000000000C5
:1014F80032DB0020000000000000000030DB00208C
:101508000000000000000000C810002000000000DB
:10151800000000000286002003000000403F06088B
:101528007086002088136F17010000009EA100201C
:1015380088136F17000000007DA803080000000052
:10154800503F06085B8D002001000000A43F0608FC
:10155800A0A1002001000000B03F060896A10020CD
:1015680002000000B83F060800000000000000006C
:10157800C43F060865A8030800000000604006088C
:101588000000000000000000B44006080000000051
:1015980000000000244106087686002002000000B2
:1015A8005C4106089AA10020E0150C170000000015
:1015B8000403090412010002EF02014083045632B9
:1015C80000020102030100001201000202020040B1
:1015D80083044057000201020301000009022000B1
:1015E800010104C03209040000020806500507057D
:1015F8008102400000070501024000000902640062
:10160800030100C0320904000001030000000921A1
:10161800110100012226000705830308000A080BB0
:101628000102020201000904010001020201000591
:1016380024001001052401000204240202052406E6
:101648000102070582030800FF09040200020A00DC
:101658000000070501024000000705810240000064
:1016680009024300020100C032090400000102021D
:1016780001000524001001052401000104240202D0
:101688000524060001070582030800FF090401007C
:10169800020A000000070501024000000705810258
:1016A80040000000FF00000000FF000000000000F4
:1016B8000000AA5507010000010000000060024078
:1016C800106002400000000000000000000B000055
:1016D8000000000000000000000000000060024060
:1016E800286002400100000000000000060C000015
:1016F8000000000000000000000000000060024040
:10170800406002400200000000000000100D0000D0
:10171800000000000000000000000000006002401F
:10172800586002400300000000000000160E000090
:1017380000000000000000000000000000600240FF
:10174800706002400400000000000000200F00004C
:1017580000000000000000000000000000600240DF
:10176800886002400500000000000000261000000C
:1017780000000000000000000000000000600240BF
:10178800A0600240060000000000000030110000C8
:10179800000000000000000000000000006002409F
:1017A800B86002400700000000000000362F00006B
:1017B800000000000000000000000000006402407B
:1017C8001064024000000000000000000038000023
:1017D800000000000000000000000000006402405B
:1017E80028640240010000000000000006390000E3
:1017F800000000000000000000000000006402403B
:10180800406402400200000000000000103A00009E
:10181800000000000000000000000000006402401A
:10182800586402400300000000000000163B00005E
:1018380000000000000000000000000000640240FA
:10184800706402400400000000000000203C00001A
:1018580000000000000000000000000000640240DA
:1018680088640240050000000000000026440000D3
:1018780000000000000000000000000000640240BA
:10188800A06402400600000000000000304500008F
:10189800000000000000000000000000006402409A
:1018A800B86402400700000000000000364600004F
:1018B800000000000000000000000000AA5505011B
:1018C800000000008C410608FF1FFF1F05010905E5
:1018D800A101A1000501093009310932093309358F
:1018E8000934094009381581257F75089508810252
:1018F800C0C0000009022200010100E03209040012
:10190800000103010200092111010001222600073C
:1019180005830308000A0000000000000102030418
:101928000102030406070809AF480408AD4D04087E
:101938002949040847130408F9140408571304082C
:10194800731304082113040813130408000000008B
:1019580000000000AA550B010000AA55050100006F
:10196800AA550902000000AA5503009F01000000C3
:10197800C012000001820000FFFFFFFF34AD00200D
:101988000000000058AD0020000000000100000029
:10199800080000007D000000891104088711040870
:1019A800851104087F1104087D11040883110408B7
:1019B80081110408B11E04089D1D0408E11E0408D5
:1019C800253B04084D530408A13B0408B112040840
:1019D8009D1204089512040801000000E0AD0608F5
:1019E8008CCB06080000000001800008A0860100DA
:1019F80004000000000000000000000000000000DB
:101A080000000000000000000000000000000000CE
:101A1800000000000000000000000000E0AD060823
:101A2800ECCB06080000000071EA0008E80300009B
:101A3800040000000000000000000000000000009A
:101A4800000000000000000000000000000000008E
:101A5800000000000000000000000000F8BB0608BD
:101A680010AD060800000000D57601087D000000D2
:101A78000600000000000000000000000000000058
:101A8800000000000000000000000000000000004E
:101A980000000000000000000000000018AD06086B
:101AA8000000000000000000AD490108E803000044
:101AB800030000000000000000000000000000001B
:101AC800000000000000000000000000000000000E
:101AD800000000000000000000000000F4CB060831
:101AE80000000000000000006974050810270000CD
:101AF80003000000000000000000000000000000DB
:101B080000000000000000000000000000000000CD
:101B180000000000000000000000000048AD0608BA
:101B280000000000DDC9020811DD00085F76000032
:101B38000500000000000000000000000000000098
:101B4800000000000000000000000000000000008D
:101B5800000000000000000000000000F8B00608C7
:101B68000000000000000000B15401081027000028
:101B7800010000000000000000000000000000005C
:101B8800000000000000000000000000000000004D
:101B980000000000000000000000000000CC060863
:101BA800000000000000000009DB0008E803000056
:101BB8000500000000000000000000000000000018
:101BC800000000000000000000000000000000000D
:101BD8000000000000000000000000000CCC060817
:101BE8000000000000000000F1820008204E000004
:101BF80003000000000000000000000000000000DA
:101C080000000000000000000000000000000000CC
:101C18000000000000000000000000001CCC0608C6
:101C28000000000000000000F5800008204E0000C1
:101C38000300000000000000000000000000000099
:101C4800000000000000000000000000000000008C
:101C58000000000000000000000000002CCC060876
:101C6800000000000000000091F10008400D030092
:101C78000300000000000000000000000000000059
:101C8800000000000000000000000000000000004C
:101C9800000000000000000000000000E4500608FA
:101CA8000000000000000000B1A900081027000093
:101CB800010000000000000000000000000000001B
:101CC800000000000000000000000000000000000C
:101CD80000000000000000000000000030AD060811
:101CE800000000000000000065BE03081027000087
:101CF80003000000000000000000000000000000D9
:101D080000000000000000000000000000000000CB
:101D180000000000000000000000000078B706087E
:101D28000000000000000000D9D90008A8610000E8
:101D3800010000000000000000000000000000009A
:101D4800000000000000000000000000000000008B
:101D58000000000000000000000000000C51060810
:101D68000000000000000000B5160108A00F0000E8
:101D7800010000000000000000000000000000005A
:101D8800000000000000000000000000000000004B
:101D98000000000000000000000000003CCC060825
:101DA8000000000000000000D9F10308102700001F
:101DB800010000000000000000000000000000001A
:101DC800000000000000000000000000000000000B
:101DD800000000000000000000000000FCAE060843
:101DE800000000000000000039800008A00F00007B
:101DF80001000000000000000000000000000000DA
:101E080000000000000000000000000000000000CA
:101E1800000000000000000000000000D8AE060826
:101E28000000000000000000A9B104081A410000E9
:101E38000100000000000000000000000000000099
:101E4800000000000000000000000000000000008A
:101E580000000000000000000000000054B1060867
:101E680000000000000000006119040810270000AD
:101E78000100000000000000000000000000000059
:101E8800000000000000000000000000000000004A
:101E980000000000000000000000000098CB0608C9
:101EA8000000000000000000410004081A41000082
:101EB8000100000000000000000000000000000019
:101EC800000000000000000000000000000000000A
:101ED80000000000000000000000000048CC0608D8
:101EE800000000000000000055210408400D030018
:101EF80000000000000000000000000000000000DA
:101F080000000000000000000000000000000000C9
:101F180000000000000000000000000050CC06088F
:101F2800000000000000000095D90008400D0300E3
:101F38000000000000000000000000000000000099
:101F48000000000000000000000000000000000089
:101F580000000000000000000000000058CC060847
:101F68000000000000000000E5DD030850C3000089
:101F78000300000000000000000000000000000056
:101F88000000000000000000000000000000000049
:101F980000000000000000000000000064CC0608FB
:101FA80000000000000000001188000840420F00F7
:101FB8000000000000000000000000000000000019
:101FC8000000000000000000000000000000000009
:101FD80000000000000000000000000070CC0608AF
:101FE80000000000000000009585000850C30000B4
:101FF80000000000000000000000000000000000D9
:1020080000000000000000000000000000000000C8
:102018000000000000000000000000000000803FF9
:10202800FFFFFFFF0000803F0000000000000000ED
:10203800000000000000803F0000000000000000D9
:102048000000000000000000000000000000000088
:102058000000000000000000000000000000803FB9
:102068000000000000000000000000000100000067
:042078000000803FA5
:082800000000000000000000D0
:10800000084B196869B130B45D68074C00206422E0
:1080100002FB05F21860B2FBF1F25860228030BC1E
:10802000704770471C0000103004001003680A7A83
:10803000591C01601A707047244B1B78F0B5002B57
:1080400043D0234B1B78002B3FD0224D2B7803F0DD
:10805000FF0C002B39D1204B1A68821A002A34DB1E
:108060001E4A1F4C12780626013A06FB02410A27D7
:108070008988B1FBF7F15F6807F1010E274406FB21
:108080000244BF7C6288C3F804E079431044BEF127
:108090000E0F084488BFC3F804C018602B7803F0A3
:1080A000FF01002BFAD101232B700E4B0E4A1B68E7
:1080B000128A5A600D4A12685162118841F001011A
:1080C00011801A6842F001021A60F0BDD824002025
:1080D000EC24002015BE0020D017002016BE002082
:1080E00038CF0508E424002024BE0020DC24002032
:1080F000704700BF6A4B1B78002B37D070B5694BB7
:10810000694D9B7AAC68A860013B041B032B00F20D
:108110008180DFE803F04402302A51F017FA634B04
:1081200063491A784B8802F00102002878D0614830
:10813000EB62D0ED037A002A40F0868003FB04F066
:1081400007EE900ADFED5C6A5C4AB8EEE77AD5ED9F
:108150000A7AE7EE267AC2E90033BDEEE77AC5ED8A
:108160000A7A85ED097A82ED027A70BD534AC2E936
:10817000003393607047524B1B681B01F5D5FF20FD
:108180003EF0E4FB18B103780A2B6BD900200346BC
:108190004A4AC5E90C03C2E90033906070BD494A00
:1081A000494BD27933F81260B6B2304615F01CFA5A
:1081B00007EE906AA861B8EE670A444816F022F903
:1081C000BCEEC00A10EE103A98B215F00DFAA9698B
:1081D000D5ED047ADFED386A384B3D4A686101FB22
:1081E00004F407EE104AB8EEC77A1860E7EE267A74
:1081F000107859602128BDEEE77AC5ED047A17EEB4
:10820000102A83ED027A85ED037AAED1314B998045
:10821000DA8070BD294B0022C3E900229A6070BD4C
:10822000274E3668F60682D5EB62002A86D0B1F971
:108230000010294A00FB01F082FB0012C017C0EBBE
:10824000A2100344EB6279E7FDEEE77A234E17EEC6
:10825000900AA0F57A7000FB00F2A6FB026200EB28
:108260001210E4E71E4A1F4B51881A68D0ED027ABB
:10827000DFED1D6A1D4C436802FB01F207EE102A78
:10828000F8EEE77AB8EE477AA4FB0121E7EE267A0A
:1082900003EBD103FDEEE77A17EE900A78E700BF13
:1082A00012A50020CCA30020D0170020749F00202E
:1082B0008886002014A500202FE33E3124A500204D
:1082C00064D9002014B9002048B90020EC17002020
:1082D000E1AD0020E4AD0020D34D62101F85EB51CD
:1082E000A8A10020D4B800207D219534CDCCCCCCE1
:1082F000F8B53F4B5B7A012B30D0022B0ED03D4BB3
:1083000000221A603C4B1B78022B00D0F8BD394A82
:108310003A4B5188128819805A80F8BD384B1B6837
:108320001B01EFD5FF203EF011FB00285CD0037845
:108330000A2B53D99FED330A0023334C04F13C0040
:10834000638716F05FF8BCEEC00A10EE103A9BB2DD
:108350002387284A618F51801380D3E72B4A2C4B07
:108360009278294C33F812102A4F8DB207EE905AAA
:1083700004F14800B8EE670A16F044F8264B397845
:108380001A88DFF898C07E781A48BCEEC00A02FB53
:1083900001F210EE103A9BB202FB05F102FB03F36F
:1083A000ACFB0323ACFB011244F6FB71BD7801EB7F
:1083B000D30301EBD201C6EB0632B3FBF2F3B1FB00
:1083C000F2F2B3FBF5F3B2FBF5F29BB292B2A4F872
:1083D0004430A4F846200380428093E7438807EEA8
:1083E000903AB8EE670AA8E7074C238FB1E700BFC1
:1083F000CCA300200CA50020E1AD0020E4AD0020BE
:1084000064D9002000000000D017002014B900201B
:1084100048B900207C8600209E240020CDCCCCCC06
:10842000F8B5322204460021023054F031FD0C4FE1
:1084300000222346052104251046D65D9E70013298
:10844000062AD9701D719871597103F10803F4D18E
:1084500001232380522384F8323064232386F8BD1D
:108460001CEC050810B483B0002440F2012140F652
:10847000060240F60A33ADF80040ADF80210ADF840
:108480000420ADF8063090B10728034617D802AA99
:1084900013440D4A13F8081C128801238B40134221
:1084A00014BF0120002003B05DF8044B7047074B58
:1084B000187800F0010003B05DF8044B704703B07A
:1084C0005DF8044B50F04ABE30A50020749F002098
:1084D0002DE9F84F4F014FF0000B184E82469146A0
:1084E00007F120085D4605E001350BF1010BBBF1FA
:1084F000280F1ED0594630465FFA8BF418F08CFFD7
:108500000028F2D0AF42EFD8A845EDD900220C48A0
:10851000114604E0013128290DD010F80C2FA24299
:10852000F8D1074B01EB410103EB81015046C847ED
:10853000DAE7BDE8F88F0021F8E700BF2018002037
:108540005CCF050810B50446496817F075FD23682F
:108550003B22591C21601A7010BD00BF034B93F8D9
:10856000582093F8591047F025B800BFD0170020C5
:10857000074A136810B503605368436093688360CB
:1085800004460021202008F025FAE07210BD00BF4B
:108590003CD1050838B5084D002415F8013BFF2BE8
:1085A000184605D0FFF75EFF014620461EF070FF1B
:1085B0000134042CF1D138BDA0D6002070B4374965
:1085C000374B384E487A384D384C0422327083F895
:1085D0005A20642283F8612001284FF00002A3F89A
:1085E0005C20A3F85E2083F860205A662A7022601F
:1085F00027D0022811D08C7A2D480022012C02604D
:1086000083F86820C0E901222FD0022C03D1294928
:108610005A62C1E9012270BC7047487D9FED267AFD
:10862000DFED266A9A6307EE900AF8EEE77AB0EE7D
:10863000476AA7EEA66ADA63C7EE067AC3ED107A38
:10864000D9E7487D9FED1C7ADFED1C6A5A6407EE7E
:10865000900AF8EEE77AB0EE476AA7EEA66A9A6447
:10866000C7EE067AC3ED137AC5E7897D9FED127ACE
:10867000DFED126ADA6007EE901AF8EEE77AB0EEF4
:10868000476AA7EEA66A0E490020C7EE067A4A603E
:10869000C1E90222D861C3ED087ABCE7CCA300206F
:1086A000D017002018A6002012A500200CA500203D
:1086B00024A50020F41700200AD7A33C3661823C91
:1086C000DC1700202DE9F04782B00023444C0093D2
:1086D00000940099434D444AD5F800E092F809808F
:1086E0005668577D10693C31009100990D680193DF
:1086F00001940199D368403101910FFA88FC0199E6
:108700000C6836F81C1026F81C500FFA87FC166807
:1087100030F81C9020F81C4016FA85F6761A13FAE9
:1087200084F3117A1660A3EB0903B6FBF1F092F81B
:1087300014902E4ED36008F1010840F6E44C0CFB77
:108740000EFC0137B3FBF9FE80B298FBF1F3BCFBE2
:10875000F0F001FB13881FFA8EFADFF8A8C082F848
:10876000098081B2224B308001FB0AF197FBF9F6B8
:10877000DFF89480DCF800C009FB16771D4E5775B2
:108780008908A6F86AE0A3FB0132D8F80030DFF8C8
:108790007CE01949194F0978CCEB521203FB02F324
:1087A00003F5FA738EFB03C2DB17C3EBA2131E3370
:1087B0001BB21E293B8004D1114A1380558094803E
:1087C000D080074B6FF004021A609A68012142F4CE
:1087D00080029A6086F86C1002B0BDE8F08700BF96
:1087E000002001403CB90020880100209E24002088
:1087F0009F00EE09D0170020E1AD002010A6002058
:10880000E4AD002040B9002044B90020D34D6210EF
:1088100008B531F0AFF900B108BDBDE8084051E737
:108820002DE9F04FDFF86882954D83B008F0F0FE37
:10883000D8F800400023AB60002C00F0E880227DD7
:10884000052A064619D98F4B40461F680121234649
:1088500007E050F8043FA960013173B11A7D052A81
:108860000BD9062A0CBFDA591A6A1B69F31A9B1A2C
:10887000002BEEDB0023019301E001230193002391
:108880001946AB601F469B469A46DFF808921AE0ED
:108890002B7B002B40F08680207D6662421C0137D6
:1088A0004FF001035A45BFB22383E282A96805D97C
:1088B000019BF3B9062804BF9346A2460131A96083
:1088C00058F82140ECB1A368002B42D0E28A002A7C
:1088D00040F08780216A3046711A98470028D7D126
:1088E000E28A20839345A968E8D2019B002B00F01F
:1088F0008C809346A2460131A96058F82140002C93
:10890000E1D1D5E90023604901321F44C5E90027C0
:10891000C1F800A0BAF1000F7ED0DAF82820DAF80A
:108920001010DAF820002D7BAAF81640B31A341A7A
:1089300093FBF1F301FB0323CAF82830CAE9074689
:10894000002D6CD1DAF80C30304603B0BDE8F04FA2
:108950001847207D062809BF4A4B226A1B68E25847
:108960002369B21AB2FBF3F31FFA83FCA4F818C010
:10897000BCF1000F03D1E28A93459FD298E710FB28
:108980000CF20132013792B2A968E282BFB293457C
:1089900094D2019B002BACD1BCF1010F8AD9934634
:1089A000A246A8E708F034FED9E91C31A3EB531C1A
:1089B000D9F87830D9F87C20A0EB060E7344C9F8BA
:1089C0007830E369A1EB511172450CEB0E0038BF12
:1089D00072461944C9F87000C9F87C20C9F87410AF
:1089E0005AE7636A2269207DA968F31AB3FBF2F3A0
:1089F00001331FFA83FC10FB0CF20132013792B2F3
:108A0000BFB2A4F818C0E282C1E7207D52E72B680C
:108A10001D4A01332B60146003B0BDE8F08F08F0ED
:108A2000F7FDDAF80C300546984708F0F1FD07EE3F
:108A3000904A9AED0B7ADFED156ADAF83840DAF8E9
:108A40001C20DAF83C10F8EE677ADAE90C3677EE9B
:108A5000C77A401BA7EEA67AA3EB53133244A04279
:108A600003440144A2EB561238BF2046CAF8303006
:108A7000CAE90E018AED0B7ACAF83420CCE700BFB0
:108A80001C0000100000001028130010CDCC4C3D3D
:108A9000A0150010D01700201A4BDFF870C0F0B4FA
:108AA0001D688701002D0CEB07060CDD164A1368C4
:108AB0009E4225D0002303E052F8044FA6421FD067
:108AC0000133AB42F8D100220CEB07030A721A699A
:108AD000CA601A7D4A72D3E90C025CF80750DC6A5E
:108AE0000D605D684D609D6BDE6B4D614009DD6919
:108AF0000D6152098E614C62C8610A62F0BC704718
:108B00000122E1E79C150010A0150010341100208F
:108B10002DE9F0411E4F3D68182D22DC002D34DD7B
:108B20001C4E336898421CD0311F01EB850133463F
:108B300003E053F8042F904213D08B42F9D13468EC
:108B40009CB1237D017D8B420ED3124A002405E0A7
:108B500052F8043F4BB11B7D8B4206D30134A54232
:108B6000F6DA0020BDE8F08100248046601C800019
:108B7000011F2A1B314430449200013554F06FF933
:108B80003D6046F824800120ECE7EAD1014ED6E7AB
:108B90009C150010A0150010134B03EB801009B1B9
:108BA000C3689BB970B5114E3468002C0DDD104DB3
:108BB0002B6898420BD02B46002203E053F8041F89
:108BC000884205D001329442F8D170BDA0E700225E
:108BD0009000011DA21A920029442844013C54F03F
:108BE0003EF9346070BD00BF341100209C150010A8
:108BF000A01500102DE9F04387B0D1E900640F46BD
:108C0000154680460E2200210DF10A0054F040F96D
:108C100024238DF80830624B2B44A41B93F81032A8
:108C20008DF80930B7F90C305A1C14BF3E232123AC
:108C30008DF80A30002D49D13B898DF80C30FE2C7F
:108C400039DDADF80D40FF2307258DF80B3002AB61
:108C50005A190DF10B01002391422FD132463019E0
:108C6000811A00292EDC8DF804304FF001092F19EC
:108C7000D8F800004F441EF0E9F8002800F0878083
:108C8000D8F800001EF0B8F82A4602A9D8F800006B
:108C90001EF0B8F822463146D8F800001EF0B2F8AF
:108CA000D8F800004A4601A91EF0ACF8D8F8000038
:108CB0001EF09CF84FE0E3B20525C6E711F8010B62
:108CC0004340C9E712F8011B4B40C9E7012D3FD1D2
:108CD000A21DFE2A4FF0FF038DF80C30D8BFD3B28F
:108CE0008DF80B30BB7AC8BFADF812208DF80D306F
:108CF0004FF005023B89ADF80E300DF10D014FF03C
:108D00000000CCBF0C250A25ADF8104017F0A6FFD7
:108D10002246314617F0A2FF02AB59198DF8040024
:108D20000DF10B02002391420AD132463719B91ACC
:108D3000002909DC58408DF805004FF0020996E73C
:108D400012F8017B7B40EEE712F8011B4B40EEE787
:108D5000022D04D00027384607B0BDE8F083BB7A67
:108D60008DF80B3005223B89ADF80C300DF10B016D
:108D70000020ADF80E4017F071FF2246314617F083
:108D80006DFF4FF001098DF8040008256FE7D8F852
:108D900000001EF063F887427FF772AFDAE700BF8A
:108DA00038CF05082DE9F041594A5A4B12685A4FFD
:108DB00082B0550200935CBF03F5801300933968BD
:108DC000D4005CBF43F480730093880704D543F458
:108DD000057343F002030093110602F4805000F182
:108DE0008E804E49097801F0EF0443F04005082CCD
:108DF000009579D00E2977D0009BD60354BF43F459
:108E0000006343F4C053002876D143F44803444838
:108E1000007808B143F00063950648BF43F48063CF
:108E2000540748BF43F40053500554BF43F48043F4
:108E300043F44043182908BF43F4E02302AE43F053
:108E40004743384C46F8083DDFF8E480402301935F
:108E5000251D14F8010BFF2815D00021324A0B46BE
:108E600003E00133282B0ED0117A884202F10C0264
:108E7000F7D103EB430308EB830393F82410A1F12C
:108E80002003032B34D9A542E3D13A68019B920712
:108E900048BF43F0200343F080030193002402E025
:108EA0000134282C18D021463046E5B218F0B4FA27
:108EB0000028F5D01C4B002203F5EA7101E013F8FD
:108EC0000C2FAA42ECD08B42F9D121463046013416
:108ED00018F082FA282CE6D196E80300134B83E8B9
:108EE000030002B0BDE8F08143F06003009383E724
:108EF000304618F081FAC6E743F4680387E710B9F3
:108F000043F080030093009B43F0005369E700BFE8
:108F100064D900200100001034A500208C5E0020E0
:108F2000DBD800209CD600205CCF0508201800204C
:108F300038CF050810B40C4C002122460B4603E044
:108F40000133282B0BD0117A884202F10C02F7D1A1
:108F500003EB430304EB83005DF8044B70470020F0
:108F60005DF8044B704700BF5CCF050810B40B4C94
:108F700000222146134604E00133282B0AD011F8C1
:108F80000C2F9042F8D103EB430304EB83005DF810
:108F9000044B704700205DF8044B70475CCF050818
:108FA0002DE9F04F2DED028BA0F10A0387B00C469E
:108FB000ED2B01F2C181DFE813F0EB07BF09BF0918
:108FC000BF09BF09BF09BF09BF09BF09BF09BF0961
:108FD000BF09BF09BF09BF09BF09BF09BF09BF0951
:108FE000BF09BF09BF09BF09BF09CC07BF09BF0936
:108FF000BF09BC07BF09BF09BF093102BF09BC01D6
:10900000BF09A401BF098E01BF093003BF090B03CB
:10901000BF09F702BF09BF09BF09F1024B03BF092E
:109020003803BF09BF098701BF09BF09BF09BF09CD
:10903000BF097101BF09BF09BF09BF09A403BF0967
:109040008403BF096D035203BF09BF09BF09BF09EC
:10905000BF09BF09BF097E06BF092B06BF099F05CF
:10906000BF09CD04BF09E002BF09BF09BF09BF099D
:10907000C30277023D011D01D90644013E02F806F4
:10908000EC06BF091007FF00BF09BF09BF09BF09F0
:10909000EE00BF09BF093E08BF09BF09BF092E087E
:1090A00060088F075104BF09BF09BF092A041304D0
:1090B000BF09C30394093509BF09BF09AF08BF0938
:1090C000BF09BF09BF09BF09BF09BF09BF09BF0960
:1090D000BF09C302BF09BF09BF09BF09BF09BF0953
:1090E000BF09BF09BF09BF09BF09BF09BF09780888
:1090F000BF09BF09BF09BF09BF09BF09BF09BF0930
:10910000BF09BF09BF09BF09BF09BF09BF09BF091F
:10911000BF09BF09BF09BF09BF09BF097809BF0956
:10912000BF09BF09BF09BF09BF09BF09BF09BF09FF
:10913000BF09BF09BF09BF09BF09BF09BF09BF09EF
:10914000BF09BF09BF09BF09BF09BF09BF09BF09DF
:10915000BF09BF09BF09BF09BF09BF09BF09BF09CF
:10916000BF09BF09BF09BF09BF09BF09BF09BF09BF
:10917000BF09BF09BF09BF09BF09BF09BF09BF09AF
:10918000BF095509BF0988099304BF09BF09BF0971
:10919000BF09BF09FE07B24952232268501C206054
:1091A000137011F8013F002BF7D10123184607B0C7
:1091B000BDEC028BBDE8F08FAA4D00202A68216823
:1091C00000EB40035B001A444E1C127A26600A70C2
:1091D0002A6821681A444E1C527A26600A702A684E
:1091E0002168134401309B7A4A1C052822600B70C9
:1091F000E4D1DAE79C4E9D4F00250BE0326893EDF9
:10920000000A936898470146204616F06DFF013525
:10921000082DCAD0336893F82E20E8B22AB15B69D2
:10922000984707EB85030028E8D10021204616F077
:109230005BFFECE7084610228D4916F00DFF012375
:10924000B4E78C4B0A681B788B4D511C03F002036A
:109250002160137023682A7D591C21601A702968C7
:10926000204616F029FF6968204616F025FF834A3C
:10927000AB68D91782FB0323C1EB631181F31001A3
:1092800089B2204616F030FFE989204616F02CFFFF
:10929000298A204616F028FF012387E7784E356893
:1092A000002D41F0F3800B685A1C0A6020462946C5
:1092B0001D7016F001FF2946204616F0FDFE2946D6
:1092C000204616F0F9FE70E7084608226D4916F0B0
:1092D000C3FE01236AE76C4D05F1800655F8041FB3
:1092E000204616F0E9FEAE42F8D122686749501CCC
:1092F0000123206013702268C978D0182060117093
:1093000054E7634D05F14006B5F88010204616F08D
:10931000EBFE236895F88220591C21601A7023689F
:1093200095F883200435591CAE4221601A70EBD1A8
:109330003BE7544D0B682A7A591C21601A70E98A60
:10934000204616F0D1FE698A204616F0CDFEA98A85
:10935000204616F0C9FE23686A7B591C21601A70EA
:10936000E98B204616F0C0FE298C204616F0BCFE84
:1093700023682A7E591C21601A702368AA7E591C12
:1093800021601A702B7F03EB8303590001F57A717A
:10939000204616F0A9FE236800265A1C226031469A
:1093A0001E70204616F088FE23683A4A591C216038
:1093B0001E702368E97E581C206019702368697E3E
:1093C000581C20601970236895F82510581C2060DF
:1093D0001970236895F82610581C206019702368AE
:1093E00095F82710581C20601970236895F82910EB
:1093F000581C20601970236895F82A10581C2060AA
:10940000197012782368591C21601A70226895F827
:109410002B10531C236001231170C7E61E4B2268DA
:109420001978501C2060117022685978531C2360F1
:1094300001231170BAE6194B0846198816F054FE3C
:10944000174B2046198816F04FFE164B21681A78E4
:109450004B1C02F00102236001230A70A6E600BF44
:109460004CD1050814A60020881400100013001029
:10947000E05E0020F0A400207CDA00201F85EB5184
:10948000F48D002014D90020AC7500202C7700202A
:10949000B0750020309600208C5E0020F2A40020E1
:1094A000F4A40020B78C0020B64B1B8BB3F5006FE3
:1094B00000F2E687B3F5806F01F23680B3F5007FE6
:1094C000B7EE008AF6EE007A28BFB0EE678AAE4D9E
:1094D00005F10C06B5EC010A20EE080A52F092FAEA
:1094E00081B2204616F000FEAE42F3D1A74DDFF860
:1094F000E092DFF8E082A64F05F10C0699F8003003
:10950000B5EC010A012B14BF43463B46D3ED077A65
:1095100080EE270A52F076FA81B2204616F0E4FD7A
:10952000AE42EBD10021204616F0DEFD00212046A0
:1095300016F0DAFD2046002116F0D6FD012335E6AF
:10954000002306461D46DFF89082CDE90333994695
:1095500002E0282D00F017872946404617F05CFFEF
:10956000EFB201350028F4D03846FEF77BFF002823
:1095700040F0E58609F10109EBE70B68854A591CC3
:10958000927821601A7023680122991821601A705C
:1095900021688B18236013460A7007E608460021ED
:1095A00016F08AFD012301E67B4D7C4E05F1300764
:1095B00095F902107A4B93F906208A4203F10803C9
:1095C00000F0C3869E42F6D10835BD42F0D1ECE5ED
:1095D000744B002603F596752268511C21601670A5
:1095E00022681978501C2060117022685978501C2C
:1095F0002060117022689978501C206011702268D8
:10960000D978501C20601170226819790A33501CD7
:109610009D4220601170DFD1C7E50A68624BD97B9B
:10962000531C236001231170C0E50B685F4A604939
:109630005278581C20601A7023680022581C206041
:109640001A7022680979531C236001231170ADE55B
:109650000A680121531823600B461170A6E50A68B9
:10966000544B55490125501C20601570226898788C
:1096700056192660107022685019206015702268F3
:1096800009785019206011701988204616F02CFDB9
:109690002B468BE5494B5D79002D40F02D872946FF
:1096A0002E462A46284623685F1C276018702368C8
:1096B000581C20601A7023685A1C226020461E70B5
:1096C000FBE53F4FBB78002B3FF46FADDFF80C811B
:1096D00000254646236818F81520591C21601A7089
:1096E000717801EB810101EB810101F2EE2120464D
:1096F00016F0FAFCBB780135AB4206F10206E9DC54
:1097000053E50B682F4D591C2A7921601A70236884
:109710006A79591C21601A702988204616F0E4FCE9
:109720002368AA79591C21601A706988204616F0AE
:10973000DBFC2268E979531C23600123117035E5B5
:10974000214B1B6813F000633FF430AD0B681F4FD3
:10975000591C3A7821601A703B78002B3FF425ADF4
:109760000025E8B23DF0F2F823684278591C2160E8
:109770001A708189204616F0B7FC3B780135AB4260
:10978000EFDC12E518120010681200103809001002
:10979000140F001060A6002094DA0020F8DA0020F0
:1097A000C8DA0020C821002014D90020E4200020BD
:1097B00000A5002048AB0020EC5C0020D8CF0020A2
:1097C00048D90020388A002064D9002010120010E7
:1097D000A4100010DC0F001020180020BC60002036
:1097E0000A68544B501C197820601170226859780F
:1097F000501C2060117022689978501C20601170F4
:109800002268D978531C236001231170CEE44A4D9D
:109810000846A98A16F068FCE98A204616F064FC1E
:10982000298B204616F060FC2368444A581C1178A6
:10983000206019702368A97E414A581C2060197065
:109840002368A979581C20601970216812684B1C84
:10985000C2F3C062236001230A70A7E4DFF8F0C0FE
:109860000027FEB2614600232268501C206016705B
:109870002268501C20601370226811F8010F013318
:10988000551C062B25601070EED10137062F0CF108
:10989000060CE6D12B4900232268501C206017706B
:1098A0002268501C20601370226811F8010F0133E8
:1098B000551C0B2B25601070EED123682249581CD3
:1098C000072220601A7023680022581C20601A703A
:1098D000226891F8EF10531C23600123117065E496
:1098E0001A4B03F1700522681978501C2060117022
:1098F00022685978501C2060117022689978501C99
:10990000206011702268D978501C20601170226884
:109910001979501C2060117022685979501C206000
:109920001170226899790733501C9D422060117094
:10993000D9D13AE420A60020F8AD00201012001082
:1099400064D9002093760020B07500201C0D012002
:109950006F7600200021204616F0C6FB002120462D
:1099600016F0C2FB0021204616F0BEFB2368A54D71
:1099700000265A1C22601E7023682A68591C92F81F
:10998000462021601A7023682A68591C92F84720E3
:1099900021601A7023685A1C22601E7023685A1CAA
:1099A00022601E7023685A1C22601E7023685A1C95
:1099B00022601E702B682046198F16F095FB2B68CD
:1099C0002046D98E16F090FB23682A68591C92F81D
:1099D0002D2021601A7023685A1C22601E702B688B
:1099E0002046598E16F080FB2B682046998E16F083
:1099F0007BFB3146204616F077FB23682A68591C0A
:109A000092F8512021601A7023685A1C22601E703F
:109A100023682A68591C92F8542021601A70236820
:109A20002A68591C92F8522021601A7023682A680B
:109A3000591C92F85A2021601A7023682A68591C10
:109A400092F84F2021601A7023682A68591C92F8F6
:109A5000552021601A702B682046998916F044FB26
:109A60002B682046598A16F03FFB2B682046198B3D
:109A700016F03AFB23682A68591C92F830202160BE
:109A80001A7023682A68591C92F86C2021601A7099
:109A900023682A68591C92F86D2021601A70236887
:109AA0002A68591C92F86E2021601A7023682A686F
:109AB000591C92F86F2021601A7023682A68591C7B
:109AC00092F8702021601A702B6893F8692023683F
:109AD000591C21601A7023682A68591C92F86A2060
:109AE00021601A702B68226893F85310531C23606E
:109AF00001231170FFF75ABB434E0B68B279414DF9
:109B0000591C21601A702B682046598816F0ECFA0F
:109B10002B682046198816F0E7FA7189204616F05E
:109B2000E3FAB189204616F0DFFA2B6820469988BF
:109B300016F0DAFA2B682046D98816F0D5FAF189A2
:109B4000204616F0D1FA318A204616F0CDFA236865
:109B50002A68591C92F8262021601A702368B2786E
:109B6000591C21601A7023680022591C21601A7048
:109B7000F188204616F0B8FA3189204616F0B4FA7A
:109B80002368727D591C21601A702368B27D591CAC
:109B900021601A702B682046B3F84C1016F0A4FA16
:109BA00023682A68591C92F85E2021601A70B18BD4
:109BB000204616F099FAF18B204616F095FA2B689C
:109BC0002046B3F8601016F08FFA2B682046B3F8E1
:109BD000621016F089FA236896F82020591C21603B
:109BE0001A70236896F82120591C21601A70718C14
:109BF000204616F079FAB18C204616F075FA034B20
:109C00000DE400BF14A60020D0880020140F01200E
:109C10000B68A44DA44A6978A44E581C20601970A2
:109C200023681278591C21601A7023683279591CF4
:109C300021601A702368B278591C21601A7031882B
:109C4000204616F051FA718A204616F04DFA236824
:109C50000022591C21601A702368F278591C216077
:109C60001A7023682A79591C21601A702368EA78CF
:109C7000591C21601A7023682A78591C21601A70B7
:109C8000698B204616F030FA698A204616F02CFAC5
:109C90002368297D864A581C2060197023689278B1
:109CA000591C21601A7022683C21531C2360012337
:109CB0001170FFF77BBA7F4B1D6800230393002DC3
:109CC00000F0E28303A9284634F0ECFC284634F087
:109CD00045FF2B689B680746002B00F055842846FB
:109CE000984705462368744E5A1C22601F702368EB
:109CF0003278591C21601A7023687278591C2160CF
:109D00001A702368B278591C21601A702268039B6C
:109D1000511C03F0010321601370B188204616F036
:109D2000E3F923685A1C22601D702368327A591C9B
:109D300021601A70F188204616F0D6F921685F4A32
:109D40000123481C20600B7021681078CD18256015
:109D5000087021685078CD1825600870216892F845
:109D6000EA20C81820600A70FFF720BA544FBB7869
:109D7000002B3FF41AAA534E002536F9021B204649
:109D800089B216F0B1F9BB780135AB42F5DCFFF7CB
:109D90000CBA0021204616F08FF94B4B204619884B
:109DA00016F0A2F90123FFF701BA484D08462988A9
:109DB00016F09AF96988204616F096F9B5F904303C
:109DC000434AD91782FB0323C1EBA301204689B282
:109DD00016F08AF90123FFF7E9B93E4D0B682A68AE
:109DE000591CD27821601A702B6822689979531C0B
:109DF0002360002311702A6821681A440133527AC3
:109E0000481C032B20600A70F5D123682A68591C6E
:109E1000127B21601A7023682A68591C127821600D
:109E20001A7023682A68591C527821601A702B68AE
:109E30002046D98916F058F923682A68591C127AE5
:109E400021601A7023682A68591C527921601A709F
:109E500023682A68591C127921601A7023682A68BD
:109E6000591CD27921601A7023682A68591C127C07
:109E700021601A7023682A68591C527C21601A706C
:109E80002B682046598A16F02FF92B682046998AAC
:109E900016F02AF92B682046D98A16F025F90123F5
:109EA000FFF784B9D08800200C0F0120F8AD002006
:109EB0008CD60020709F0020649F00205C8E0020C4
:109EC00048D90020D4A6002032A50020F8A4002004
:109ED0006766666650A70020984899490379994DAE
:109EE000012B23680CBF4A7DCA795E1C26601A705C
:109EF00023685E1C26601A702368AD78924A5E1C47
:109F000026601D70236812785D1C25601A70236816
:109F10000279581C20601A702368CA79581C206086
:109F20001A702268497D531C236001231170FFF7CA
:109F30003DB9864D0846298816F0D6F8A9882046EE
:109F400016F0D2F82989204616F0CEF80123FFF743
:109F50002DB97F4D05F178062878FFF707F82368BB
:109F6000027A591C21601A7023686A78591C216092
:109F70001A702368AA78591C21601A702368EA783D
:109F80000635591CAE4221601A70E5D1FFF70DB9B4
:109F9000704D284650F072FC00283FF406A92B466D
:109FA0000544226813F8011B501C9D42206011706B
:109FB000F7D1FFF7FAB803A816F0B2FD00283FF476
:109FC000F4A8BDF80C10204616F08EF823689DF812
:109FD0000E20591C21601A7023689DF80F20591C0F
:109FE00021601A7023689DF81020591C21601A7096
:109FF00023689DF81120591C21601A7023689DF870
:10A000001220591C21601A702046BDF8141016F059
:10A010006BF8FFF7CAB8504D0846298816F064F867
:10A020006988204616F060F8A988204616F05CF88A
:10A030000123FFF7BBB8494D05F16006A98820460A
:10A0400016F052F8E988204616F04EF82989204685
:10A0500016F04AF82368AA7A591C21601A702368FE
:10A06000EA7A591C21601A7055F80C1B204616F02C
:10A0700023F8B542E2D1FFF798B80A68384B364961
:10A080001878551C2560107022685878551C25607A
:10A09000107022689B78501C206013702046C9887D
:10A0A00016F022F80123FFF781B80B682D4F591CD9
:10A0B0003A7821601A703B78002B3FF476A8DFF8DD
:10A0C000BCC0294D29482A496346226813F8016B10
:10A0D00002F1010EC4F800E01670226815F8016B59
:10A0E00002F1010EC4F800E01670226810F8016B4E
:10A0F00002F1010EC4F800E01670226811F8016B3D
:10A1000002F1010EC4F800E016703E78A3EB0C02D9
:10A110009642DADCFFF749B80B68164F591C3A78BB
:10A1200021601A703B78002B3FF43FA8124EDFF8F5
:10A1300050B001974FF000094DE000BFD0880020DB
:10A14000A85B002070610020A05E0020B0240020E9
:10A150003C5F0020B8AB0020441001201C110120FE
:10A16000BC100120CD8A0020E08A0020008B002056
:10A17000F08A00201012001078120010D08A0020FF
:10A1800064D90020002F40F06A810097BA46B84693
:10A190003D463946204615F08FFF2946204615F0EA
:10A1A000A3FF2568681C20605146204685F8008082
:10A1B00015F09AFF0099204615F096FF3946204683
:10A1C00015F092FF019B1B7809F101094B4506F13F
:10A1D00004067EF6EAAFBD4ADBF80030957903F05D
:10A1E0000067002DCED0B189B37B907EC82202FBE0
:10A1F00001F15FFA89F891FBF0F1002B40F0288122
:10A2000042F21075002F00F01F81404600913CF093
:10A210009DFB0099838890F80180B0F802A000931C
:10A220000789B7E7AA4D0846298915F05DFF6989B6
:10A23000204615F059FFA989204615F055FFE98AF7
:10A24000204615F051FF298B204615F04DFF698BF4
:10A25000204615F049FFE989204615F045FF012306
:10A26000FEF7A4BF0B689B4D591C1422216005F119
:10A2700078061A702878FEF779FE07466879FEF7A7
:10A2800075FE23683A7A591C21601A7023682A796E
:10A29000591C21601A702368027A0635591CB54290
:10A2A00021601A70E6D1FEF780BF0B688A4A591CFC
:10A2B0001278216003A81A7016F032FC2268531C31
:10A2C000236001231070FEF771BF844D0846A989F1
:10A2D00015F00AFF6989204615F006FF0123FEF7F5
:10A2E00065BF7B4D0846298815F0FEFE698820462B
:10A2F00015F0FAFEA988204615F0F6FEE9882046FA
:10A3000015F0F2FE298A204615F0EEFE698A2046F5
:10A3100015F0EAFEA98A204615F0E6FE236895F8B6
:10A320002020591C21601A702268297F531C236049
:10A3300001231170FEF73ABF0023FEF737BF4946ED
:10A3400003A817F059F8FFF715B923685A1C2260C3
:10A3500019702988204615F0C7FE2368EA78591C31
:10A3600021601A7023682A79591C21601A702368A9
:10A37000AA79591C21601A7023686A79591C2160D6
:10A380001A70FFF721B9564B564DB3F89C10204672
:10A3900015F0AAFE0021204615F0A6FE524B1968C2
:10A3A0004B0103F02002C1F340031343C1F38002C9
:10A3B00043EA4203C1F3C00243EA8203C1F34012FD
:10A3C00043EAC20301F010011943204615F08CFE48
:10A3D00003A90422204615F03FFE23682978434A4A
:10A3E000581C2060197011886429A8BF6421204678
:10A3F00015F07AFE962E00F08C800021204615F094
:10A4000073FE2168B9F1190348BFA9F11203A3F340
:10A41000C4034A1C226020461A460B7004A915F09A
:10A420001BFE2368324A581C1821206019701168DD
:10A43000204615F041FE22682E4B1978531C2360EC
:10A4400001231170FEF7B2BE0097BA46B846A1E6E6
:10A45000404600912DF0D8FE009985B2D2E65FFA11
:10A4600089F03CF073FA194B9F7EB0F90C3003EB86
:10A47000830303EB830399007B0891FBF3F1C9E6A7
:10A48000B4EE008AFFF723B8FF272BE417F034FC63
:10A49000054643F059F8236845F002055A1C22602E
:10A4A0001D70838841880133591A204615F004FE37
:10A4B0003168204615F000FE17F0CEFA014620461E
:10A4C00015F0FAFD0123FEF771BE00BFF8AD0020C4
:10A4D00088AB00203C5F0020DA56002060A60020F8
:10A4E000341100208CD6002034A500203004001048
:10A4F00048A60020E88D002039F0DEFAC0B92F4EC2
:10A5000041F2D453054601460246F65C0120FFF7AE
:10A51000CAB823680322591C21601A7023686A781C
:10A52000591C21601A706CE7B5EE008AFEF7CFBFA8
:10A5300039F0B2FA214E40B941F2D4530122054616
:10A540000146F65C1046FFF7AEB87778022F1ED0B2
:10A55000032F08D041F2D45300250122F65C29468E
:10A560001046FFF7A0B841F2985241F2D453B158C7
:10A57000F65C890A009139F089FA0568009904228D
:10A580006D080120FFF78FB81846FFF7AABB0C4BE8
:10A590001B68DB69984740B141F2D4530025F65C53
:10A5A000294603220120FFF77EB841F2D453054625
:10A5B00001463A46F65C0120FFF775B8B8F5002071
:10A5C00050D0002010B50A4CA378022B09D0012BE3
:10A5D00001D0002010BD074B1868003018BF0120C3
:10A5E00010BD39F059FA0028F4D1A378EFE700BF85
:10A5F00048AB0020F48D002008B50E4B19780129D6
:10A6000013D00DD3022902D100201CF0B7FC06F0B4
:10A61000FFFF094B00F5F42000F59070186008BDAD
:10A62000002108461CF046FFF1E700201CF042FF25
:10A63000EDE700BFE6200020E820002010B504462A
:10A6400020461CF003FC00B110BD0A200AF0D2FC29
:10A65000F6E710B5084A002352F83310884202EB9F
:10A66000C30403D00133062BF6D110BD0021C16213
:10A67000A18042F83310F8E7C8DA00202DE9F04F46
:10A6800085B0CDE902213C4A9DF83C709DF84080A0
:10A690009A460025914602EBC50393F906108142C4
:10A6A0002ED00135062DF6D10023184605B0BDE8A1
:10A6B000F08F43463A460E9920462DF03DFF002884
:10A6C000F2D0029A80F868B0C0E90B2A0E9A07719E
:10A6D000C0E90766C0E90966826080F805800290DB
:10A6E0002DF060FC029B3DE03B46CDF800800E9AC9
:10A6F0000298514643F0FCFC0346002832D1D3E7D0
:10A700009E88002ED0D1C4B21E2CCDD84FF0010BA4
:10A710000BFA04F313F02D0FCBD113F08046E3D1E5
:10A72000DB02C1D51B201CF039FC10B12923837139
:10A73000C67141F03DFC18B1292383710023C37118
:10A7400037F064FE0D4B1B78012B0BBF0C490D49F4
:10A7500001F12C00A1F11C0043F080F80A4B0B4AD8
:10A7600043F8802F09EBC502039983F838409180A4
:10A7700049F8353099E700BFC8DA0020309600204C
:10A78000A0010020E8010020D017002068D10508B2
:10A7900038B1038813EA020003D00B4214BF012032
:10A7A0000020704738B1038813EA010003D08B42C0
:10A7B0000CBF01200220704770B50C4C0C4D0023DB
:10A7C000062BDAB203D184F8D43000200BE05E1CF3
:10A7D00005EBC30135F8333001321842D2B203D051
:10A7E000084684F8D42070BD3346E9E7D01700202E
:10A7F00094DA00202DE9F04F012085B0FFF7DCFF4F
:10A800002E4E2F4F05460024002D45D0022C43D854
:10A810004FF0E00808FB04F806EB080A56F8089029
:10A82000B9F1000F02D00134E4B2EDE7032395F94A
:10A8300002000193CDF80890EA78224B53F82230B9
:10A8400000934A464B460121FFF718FF8346D8B1D3
:10A850004FF40F7201212846FFF79AFF0546C4EB1B
:10A86000C40006EB4010DC224946043052F010FBD5
:10A87000154A46F808B013688AF8DA50591C0134B2
:10A880001160CAF8DC30E4B297F8D4200F49D3B293
:10A89000052B04D987F8D43005B0BDE8F08F501CE3
:10A8A00001EBC20531F832200133D207DBB202D509
:10A8B00087F8D430A8E70246E9E700BFDCD30020E0
:10A8C000D01700200043060898A3002094DA002047
:10A8D00018280CD8074B00EB400003EB800090F8E1
:10A8E000600228B10123013803FA00F0704700200C
:10A8F000704700BF38CF050810B500200AF09AFC59
:10A90000074B084A00241C701470FFF775FE064BB5
:10A91000C3F8D840A3F8DC40C3F8E04010BD00BF46
:10A92000E620002060AB0020D0170020A0B31B4B16
:10A930001B6813F4003328D101229042184908D033
:10A940000133192B03EB430227D011F82220904248
:10A95000F6D1144A30B4D2F8E040590044B112485C
:10A960006478CD1800EB850090F86102A0420AD20D
:10A970000B480B4400EB83030021C2F8E030A2F83F
:10A98000DC10C2F8D81030BC7047084B1B78032B82
:10A9900002D001220023D0E7AEE77047BC2400209C
:10A9A00098D10508D017002038CF050818A6002038
:10A9B0002DE9F84306460B204EF0D0FB10B30A20D9
:10A9C000FFF7B4FF624CD4F8E050CDB1D4F8D830E2
:10A9D000B34215D8DFF8AC8198F80030002B5BD07B
:10A9E0006B68B4F8DC70DB5D002B3ED1002342F2D3
:10A9F0001072013702FB0366A4F8DC70C4F8D8605B
:10AA0000BDE8F883534B1B681D06DBD51D204EF0B7
:10AA1000A5FB0028D6D0504B1B68DC05D2D44F4B89
:10AA20001B789807CED54E4B187D0428CAD94D4BBC
:10AA300040F605221A801F461A46052502230A24DD
:10AA400006E00233402B9570D47002F102027DD0F3
:10AA5000C3F346018842F4D8591E32207854FF22AD
:10AA60000E20FA54FFF762FFACE700200AF0E2FB89
:10AA70003D4A0023137088F80030FFF7BDFDD4F87D
:10AA8000E050B4F8DC706B68DB5DFE2B58D100231E
:10AA9000A4F8DC30BDE8F8834CF04CFBD8B92B7837
:10AAA0000A2B3ED0022B16D12B4A93689B0712D457
:10AAB0002E4B2F491B68F31A8B420CD92D4B1B6868
:10AAC0004BB92D482D49066012790978FF201DF0F9
:10AAD000A7FAD4F8E050B4F8DC706B68DB5D002BAB
:10AAE00084D02B781C4A013B4FF00109126809FA07
:10AAF00003F313421AD01C4B01221A70FFF77CFD9E
:10AB0000002FC0D12B785A1F012A01D9182BBAD196
:10AB100006F07EFD1A4BD4F8E0501860B4F8DC70F3
:10AB2000B1E70D4A93689905C2D5D4E748460AF0C3
:10AB300081FBB4F8DC70D4F8E05088F80090DAE7D4
:10AB4000FF2B7FF454AFBDE8F843D5E63F2184E7FF
:10AB5000D017002064D90020BC240020F0A40020DD
:10AB60007CDA00200C210020E62000205421002067
:10AB7000804F120054A6002058A60020101200108A
:10AB8000945E002060AB002040004028094A30B4A9
:10AB9000A8BF4020002302251424D5540233D11825
:10ABA000834201F8014CF8D3FF21D1540E2030BC70
:10ABB000BCE600BF0C21002008B50A4B1B78DB0760
:10ABC00000D508BD084B1B781BB1084B00221A703A
:10ABD00008BD074B02229A7309F0DCFD0420FFF741
:10ABE000A5FEF2E7749F00205C240020582100207D
:10ABF0008CD6002010B5094C238823EA0000984227
:10AC0000208009D0064B41F20241FF2219809A7040
:10AC10000E20FFF78BFE2388184610BD30A50020BC
:10AC20000C21002010B5094C23881843984220803D
:10AC300009D0074B41F20241FF2219809A700E2081
:10AC4000FFF774FE2388184610BD00BF30A5002012
:10AC50000C210020024A136818431060704700BF9F
:10AC600048A600202DE9F04F9FB0B1F908B0A2F836
:10AC700008B05FFA8BFBBBF1380F00AF144600F051
:10AC800020830D4680461E4649D9BBF1810F00F056
:10AC90008F8100F29C80BBF1540F00F0CC8040F219
:10ACA0003D82BBF16E0F00F0CF83BBF1800F40F00F
:10ACB000EC81C84B93F8008008F1020818F0FF08F7
:10ACC00000F09D80C44EDFF83493DFF838A3B04421
:10ACD0000A25013616E0322D00F01A86A5F13C0057
:10ACE000C0B2132840F22F8600232268511C216035
:10ACF00015702268464502F10101216013707ED073
:10AD000016F8015B0A2DE6D1BAF844300533A9FBE9
:10AD10000323DB08FF2BA8BFFF23DBB2E5E7BBF172
:10AD2000040F00F02C8340F2DF81BBF1200F00F014
:10AD3000018140F24982BBF1240F00F01183BBF185
:10AD4000280F40F0A2811368DFF8BC82A34D591C84
:10AD5000022221601A70236806265A1C22601E7087
:10AD600023680A22591C21601A7023684FF0010BD6
:10AD700003EB0B02226083F800B0B8F80010204605
:10AD800015F0B2F9B8F80210204615F0ADF92368B5
:10AD900003EB0B0222601E702368502203EB0B01B1
:10ADA00021601A702368002203EB0B0121601A70E6
:10ADB0002988204615F098F96988204615F094F9FD
:10ADC0005B4658467C37A381BD46BDE8F08FBBF19A
:10ADD000A00F1DD040F2BF81BBF1B80F00F05F8221
:10ADE000BBF1FE0F40F051817D4D05F1080635F9AC
:10ADF000021B204689B215F077F9AE42F7D14FF029
:10AE0000010B5B4658467C37A381BD46BDE8F08FF9
:10AE1000744B1046196815F04FF9734B20461968AA
:10AE200015F04AF9714B204619684FF0010B15F0E7
:10AE300043F95B46C5E713686D4A6E4E581C1121F5
:10AE40002060197023681278591C21601A702368D9
:10AE500096F87520591C21601A70236896F87420A2
:10AE6000591C21601A70B6F87010204615F03CF994
:10AE700023680022591C21601A7023683822591C4B
:10AE800021601A70B6F87210204615F02DF9B51E23
:10AE900006F16E0835F8021F204615F025F9A84581
:10AEA000F8D122681821531C23600125002311705A
:10AEB000D6F88410226805FA03F0084203F1010372
:10AEC00014BF01210021501C182B20601170EFD1FC
:10AED00023680222591C21601A70B6F876102046A9
:10AEE00015F002F9B6F87810204615F0FDF8B6F81E
:10AEF0007C10204615F0F8F823681022591C2160B8
:10AF00001A70F16F204615F0D7F823680322591CF8
:10AF100021601A70236896F89020591C21601A70DD
:10AF2000226896F89110531C4FF0010B23605B468A
:10AF3000117046E7304D31496A8823680532A1FB1C
:10AF40000202C2F3C702581C20601A702A882368C4
:10AF50000532A1FB0202C2F3C702581C20601A701E
:10AF6000AB8822680533A1FB0313C3F3C703511C4D
:10AF700021601370A989204615F0B6F823686A7A13
:10AF8000591C21601A702368AA7A591C21601A7012
:10AF90006988204615F0A8F82988204615F0A4F8FD
:10AFA0004FF0010BA988204615F09EF85B4608E794
:10AFB000084B93F8008008F1030818F0FF083FF4ED
:10AFC0001EAF0F4BDFF83CA0984403F101090A269D
:10AFD0003AE000BF10120010C4D205088886002095
:10AFE000E4AD0020107AFF1F147AFF1F187AFF1FAC
:10AFF000F0AD0020E8A30020CCA30020CDCCCCCC29
:10B00000D4D20508D017002080860020502E00F0F2
:10B010008384322E00F0A384A6F13C00C0B2132832
:10B0200040F2D0840025294623685A1C226020461D
:10B030001E7015F059F82946204615F055F8C845F8
:10B040003FF4DDAE19F8016B0A2EDFD1DAF81450A7
:10B05000DAF80C20B24B05EB85054FF6FF716D0059
:10B060008D42A8BF0D461B789142A8BF114625EA24
:10B07000E57521EAE171212BADB289B2D4D1A9489D
:10B08000DAF81830C2808380CEE721465846FDF7B3
:10B0900087FF814600287FF4B2AEBBF1890FD5E966
:10B0A00000A300F0AC8400F2A680BBF1740F00F0A6
:10B0B0001382BBF1770F00F09184BBF1440F40F095
:10B0C000A680534540F067862368974A591C216043
:10B0D00082F82C011870002E00F06F84934B3360BF
:10B0E0004FF0010B5B466CE6BBF1020F00F0E8810C
:10B0F00000F2D581BBF1010FC7D113680022591CA2
:10B1000021601A7023685A1C226083F800B02268FC
:10B110002A21531C23605B46117052E6BBF1520F8B
:10B12000B3D11268824D531C032123600620117095
:10B13000002301212268561C266011702268063304
:10B14000511C122B216005EB0306107000F05D818D
:10B150007078595DEEE7BBF1820F96D12368754A8E
:10B16000754D1178754A764E581C2060197091897A
:10B17000204614F0B9FF2B88724922680533A1FBE1
:10B180000313DB08FF2BA8BFFF23511C21601370A2
:10B19000B16881F3100189B2204614F0A5FF31682F
:10B1A00001F30F0189B2204614F09EFF2368664A1E
:10B1B000591C127821601A70298820464FF0010B23
:10B1C00014F092FF5B46FCE5BBF1050F7FF45DAF29
:10B1D0000B225E49204614F03FFF08225C492046BE
:10B1E00014F03AFF4FF0010B07225A49204614F0A1
:10B1F00033FF5B46E5E5BBF1D00F00F07D81BBF18D
:10B20000E60F00F00B84BBF18A0F00F00084BBF165
:10B21000F50F00F0AF84BBF1470FA3EB0A0600F077
:10B220006B84ABF12102362A00F27A82DFE812F059
:10B23000A701780278027802780278027802780210
:10B24000FB017802780278027802780278027802AC
:10B25000780278027802780278027802780278021E
:10B260007B0178027802780278027802780278020C
:10B2700078027802780278027802780278027802FE
:10B2800078027802780278027802780278027802EE
:10B29000780278023A027802DA01780290012E4DA3
:10B2A0001046296814F008FF23682A79591C216088
:10B2B0001A70A96820464FF0010B14F0FDFE5B46A2
:10B2C0007FE51268254B4FF0010B511C216082F87D
:10B2D00000B02268052102EB0B002060117022688B
:10B2E0000A2102EB0B00206011702268002102EBA2
:10B2F0000B00206011702268197802EB0B002060AF
:10B3000011702268597802EB0B00206011702168DF
:10B310009A7801EB0B0323605B460A7051E500BF8E
:10B32000E1AD0020E4AD0020D017002059D900087D
:10B3300038CF050812A500200CA50020CCA30020C2
:10B3400024A50020CDCCCCCC18A60020244F060884
:10B35000304F06083C4F0608BC2400207C860020A5
:10B36000BD4B93F82421002A00F0B380D3F82811B4
:10B3700020464FF0010B14F09FFE5B4621E55A4634
:10B38000B649204614F068FE0021204614F0ACFEB9
:10B390002368B349581C022220601A7023680325D1
:10B3A0005A1C22601D7023680A205A1C2260024623
:10B3B0001870204614F050FEAA484FF05FFA236838
:10B3C000A8495A1C22601870204614F035FEA64881
:10B3D0004FF054FA2368A4495A1C22601870204682
:10B3E00014F02AFE2022A149204614F035FE2368DD
:10B3F0009F495A1C22601D702268897B531C4FF0A4
:10B40000010B23605B461170DBE49A4B21681A78CC
:10B41000481C20600A70002A3FF4F1AC013AD2B215
:10B42000954902EB420201EB42025578002D3FF4B0
:10B43000E6AC01331D44226813F8011F501C9D42E5
:10B4400020601170F7D1DAE48C4D8D492B88126899
:10B450008C4E0533A1FB0313DB08FF2BA8BFFF2392
:10B46000511C21601370B16881F3100189B220462C
:10B4700014F03AFE27F05CFA0146204614F034FE40
:10B48000316801F30F0189B2204614F02DFE4FF010
:10B49000010B2988204614F027FE5B4691E41368CF
:10B4A0000422591C21601A70236801229918216016
:10B4B0001A7021688B182360934613460A7080E443
:10B4C0000422714920464FF0010B14F0C5FD5B4684
:10B4D00077E46E4B19684BE753451BBF0AF1010334
:10B4E0002B6001469AF80010694A20464FF0010B84
:10B4F000FCF7EEFF5B4664E4A3EB0A03002B02DDDE
:10B50000284614F093FD634B1B7813F0010500F0FF
:10B510006184002122684FF0010B02EB0B032360D2
:10B520005B4611704DE40AF101032B609AF800307C
:10B530000A2B00F02D85284614F078FD284614F0DB
:10B5400075FD4FF0010B284614F070FD5B4638E4A2
:10B550000AF101032B601AF8370B07F137020133A8
:10B560002B6013F8011C02F8011F9A45F7D107F16F
:10B5700038014FF0010B17F025F85B4621E45246E5
:10B580000AF101032B6012F8023B434E03EB8303E5
:10B590005B0073802A609AF8013003EB83030AF1A1
:10B5A00003025B0033802A609AF8023003EB8303C6
:10B5B0005B002846B38014F02DFD2A68B081134645
:10B5C000511C296013F8021B71722B605278B27201
:10B5D0006A68D31A052B00F3BD844FF0010B5B465C
:10B5E000FFF7EFBB0AF101032B609AF80060FF2E12
:10B5F00000F04E85FE2E00F00985284614F00AFD65
:10B60000D5E90032D21A002A00F31485372E00F251
:10B61000F884224B4FF0010B23F816003FF096FA06
:10B620005B46FFF7CEBB0AF101032B609AF80030AE
:10B630000A2B00F08184502B40F07384284614F0CC
:10B64000E9FC174E3080284614F0E4FC4FF0010B63
:10B6500070805B46FFF7B5BBD017002093D6002063
:10B66000184F0608B4180020CC180020D418002069
:10B670008CD6002016BE002038CF05080CA500206F
:10B68000CDCCCCCC24A50020104F060864D90020D6
:10B6900045850008749F0020CCA30020E8A300206B
:10B6A000888600200AF101032B609AF80010032914
:10B6B00000F2A7844A1ED2B21648174B02EB420290
:10B6C00000EB420219705278002986D0711EC9B26F
:10B6D000914240F096840022C3F80620C3F802206D
:10B6E0009A7251B101332A68194401322A6012F862
:10B6F000010C03F8010F9942F7D1084B1B78002B7E
:10B700003FF46BAF4FF0010B41F03EFC5B46FFF79F
:10B7100058BB00BF38CF050816BE0020D824002033
:10B72000ABF10B0BBBF1EF0F01F29681DFE81BF0E1
:10B730008009940994099409940994099409940935
:10B740009409940994099409940994099409940911
:10B750009409940994099409940994099409940901
:10B760008B08940979089409670894099409940945
:10B770004E0894095F079409460794092207940923
:10B7800016079409DE109409480494099409940951
:10B7900094099F10940986109409940978109409CB
:10B7A00094099409940994099409711094099409CD
:10B7B00094094E109409231094099409E10F9409F7
:10B7C000940994099409940994099409200F9409FF
:10B7D000830E9409AC0D9409A90C9409970C6F0C75
:10B7E000430C9409940994099409940994099409BF
:10B7F0009409940994099409940994099409940961
:10B800009409940994099409940994099409940950
:10B810009409940994099409940994099409940940
:10B820009409940994099409940994099409940930
:10B830009409940994099409940994099409940920
:10B840009409940994099409940994099409940910
:10B850009409940994099409940994099409940900
:10B8600094099409940994099409940994099409F0
:10B8700094099409940994099409940994099409E0
:10B8800094099409940994091C0C9409DB0BAC0BE2
:10B8900094099409940994099409940994099409C0
:10B8A00094099409940994099409990B340B110B88
:10B8B00094099D0A8F0A740A9409940994095E0AEE
:10B8C000560A230A94090A0A94099409DA09BE0956
:10B8D000B309A80694067306560694090006DE0509
:10B8E0006605210594099409940994099409940919
:10B8F00094099409940994097209940994093509E1
:10B900009409940994091B099409D008EB06C70609
:10B91000BAF83830FFF7FAB9DAF82C50DAF8241010
:10B9200005EB85056D004FF6FF739D42A8BF1D46D0
:10B930009942A8BF194625EAE57521EAE171ADB241
:10B9400089B2FFF771BB3BF001F800283FF4CCA9A6
:10B9500003780A2B3FF6C8A94388FFF7D7B9DAE97D
:10B960000C1303EB83035D00DDE70AF101032B6099
:10B970009AF800506B1E072B00F2F2832368AA4E40
:10B98000591C06EB450221601D70B2F8EA102046F2
:10B9900014F0AAFB226805F13E039B00F518032171
:10B9A000501C20600D4433441170226813F8011BB1
:10B9B000501C9D4220601170F7D14FF0010B5B4687
:10B9C000FFF7FFB93AF0C2FF00283FF42BAB037832
:10B9D0000A2B3FF627ABD0E90131C2E753451BBF25
:10B9E0000AF101032B6001469AF800108F4A2046A5
:10B9F0004FF0010BFCF76CFD5B46FFF7E2B95345D6
:10BA000040F0F9814FF0FF3B5B46FFF7DAB9534551
:10BA1000ABD14FF0FF3B5B46FFF7D3B9534500F086
:10BA20008B83D4E9002CACEB0202BB62FB6202F117
:10BA3000FF39D6467862002399450EF1010B07F1D4
:10BA4000380207F1280140461EDDC5F800B09EF817
